{
  "contractName": "Admin",
  "abi": [
    {
      "inputs": [],
      "stateMutability": "nonpayable",
      "type": "constructor"
    },
    {
      "inputs": [],
      "name": "HOSPITAL_ADMIN",
      "outputs": [
        {
          "internalType": "address",
          "name": "",
          "type": "address"
        }
      ],
      "stateMutability": "view",
      "type": "function"
    },
    {
      "inputs": [],
      "name": "MAIN_ADMIN",
      "outputs": [
        {
          "internalType": "address",
          "name": "",
          "type": "address"
        }
      ],
      "stateMutability": "view",
      "type": "function"
    },
    {
      "inputs": [],
      "name": "NOTTO_ADMIN",
      "outputs": [
        {
          "internalType": "address",
          "name": "",
          "type": "address"
        }
      ],
      "stateMutability": "view",
      "type": "function"
    },
    {
      "inputs": [
        {
          "internalType": "address",
          "name": "_address",
          "type": "address"
        }
      ],
      "name": "set_admin",
      "outputs": [],
      "stateMutability": "nonpayable",
      "type": "function"
    },
    {
      "inputs": [],
      "name": "get_admin",
      "outputs": [
        {
          "internalType": "address",
          "name": "_main_admin_address",
          "type": "address"
        }
      ],
      "stateMutability": "view",
      "type": "function"
    },
    {
      "inputs": [
        {
          "internalType": "address",
          "name": "_hospital_admin_addr",
          "type": "address"
        }
      ],
      "name": "set_hospital_admin",
      "outputs": [],
      "stateMutability": "nonpayable",
      "type": "function"
    },
    {
      "inputs": [],
      "name": "get_hospital_admin",
      "outputs": [
        {
          "internalType": "address",
          "name": "_hospital_admin_address",
          "type": "address"
        }
      ],
      "stateMutability": "view",
      "type": "function"
    },
    {
      "inputs": [
        {
          "internalType": "address",
          "name": "_NOTTO_admin_addr",
          "type": "address"
        }
      ],
      "name": "set_NOTTO_admin",
      "outputs": [],
      "stateMutability": "nonpayable",
      "type": "function"
    },
    {
      "inputs": [],
      "name": "get_NOTTO_admin",
      "outputs": [
        {
          "internalType": "address",
          "name": "_NOTTO_admin_address",
          "type": "address"
        }
      ],
      "stateMutability": "view",
      "type": "function"
    }
  ],
  "bytecode": "0x608060405234801561001057600080fd5b50336000806101000a81548173ffffffffffffffffffffffffffffffffffffffff021916908373ffffffffffffffffffffffffffffffffffffffff160217905550610446806100606000396000f3fe608060405234801561001057600080fd5b50600436106100935760003560e01c80637cc52441116100665780637cc524411461010e578063a4021db41461012a578063ab8ecc7514610148578063cfcb399614610166578063e9333fab1461018457610093565b806303ef5f9c1461009857806316a5fcf3146100b45780631f8ac893146100d257806354c7c612146100f0575b600080fd5b6100b260048036038101906100ad91906103b9565b6101a0565b005b6100bc6101e4565b6040516100c991906103f5565b60405180910390f35b6100da61020d565b6040516100e791906103f5565b60405180910390f35b6100f8610231565b60405161010591906103f5565b60405180910390f35b610128600480360381019061012391906103b9565b61025a565b005b61013261029e565b60405161013f91906103f5565b60405180910390f35b6101506102c4565b60405161015d91906103f5565b60405180910390f35b61016e6102ea565b60405161017b91906103f5565b60405180910390f35b61019e600480360381019061019991906103b9565b610313565b005b80600260006101000a81548173ffffffffffffffffffffffffffffffffffffffff021916908373ffffffffffffffffffffffffffffffffffffffff16021790555050565b60008060009054906101000a900473ffffffffffffffffffffffffffffffffffffffff16905090565b60008054906101000a900473ffffffffffffffffffffffffffffffffffffffff1681565b60008060009054906101000a900473ffffffffffffffffffffffffffffffffffffffff16905090565b80600160006101000a81548173ffffffffffffffffffffffffffffffffffffffff021916908373ffffffffffffffffffffffffffffffffffffffff16021790555050565b600160009054906101000a900473ffffffffffffffffffffffffffffffffffffffff1681565b600260009054906101000a900473ffffffffffffffffffffffffffffffffffffffff1681565b60008060009054906101000a900473ffffffffffffffffffffffffffffffffffffffff16905090565b806000806101000a81548173ffffffffffffffffffffffffffffffffffffffff021916908373ffffffffffffffffffffffffffffffffffffffff16021790555050565b600080fd5b600073ffffffffffffffffffffffffffffffffffffffff82169050919050565b60006103868261035b565b9050919050565b6103968161037b565b81146103a157600080fd5b50565b6000813590506103b38161038d565b92915050565b6000602082840312156103cf576103ce610356565b5b60006103dd848285016103a4565b91505092915050565b6103ef8161037b565b82525050565b600060208201905061040a60008301846103e6565b9291505056fea26469706673582212207c194d908061ed665b5a893f7772dc43f9f665797e07f7fbdccf9f642836f6de64736f6c634300080a0033",
  "immutableReferences": {},
  "source": "// SPDX-License-Identifier: MIT\npragma solidity >=0.4.22 <0.9.0;\n\ncontract Admin {\n    address public MAIN_ADMIN;\n    address public HOSPITAL_ADMIN;\n    address public NOTTO_ADMIN;\n\n    constructor() {\n        MAIN_ADMIN = msg.sender;\n        // MAIN_ADMIN = 0xE27f249fA6B71C0A8CC90251b0445B30f86E50B0;\n        // HOSPITAL_ADMIN = 0xE27f249fA6B71C0A8CC90251b0445B30f86E50B0;\n        // NOTTO_ADMIN = 0xdFBDfA018e439621E8446a2aA8086be50c981dEB;\n    }\n\n    \n    function set_admin(address _address) public {\n        MAIN_ADMIN = _address;\n    }\n\n    function get_admin()\n        public view\n        returns (address _main_admin_address)\n    {\n        _main_admin_address = MAIN_ADMIN;\n    }\n\n    function set_hospital_admin(address _hospital_admin_addr) public{\n      HOSPITAL_ADMIN = _hospital_admin_addr;\n    }\n\n    function get_hospital_admin()\n        public view\n        returns (address _hospital_admin_address)\n    {\n        _hospital_admin_address = MAIN_ADMIN;\n    }\n\n    function set_NOTTO_admin(address _NOTTO_admin_addr) public{\n      NOTTO_ADMIN = _NOTTO_admin_addr;\n    }\n\n    function get_NOTTO_admin()\n        public view\n        returns (address _NOTTO_admin_address)\n    {\n        _NOTTO_admin_address = MAIN_ADMIN;\n    } \n}\n",
  "sourcePath": "D:\\OrganDonationBlockchain\\contracts\\Admin.sol",
  "compiler": {
    "name": "solc",
    "version": "0.8.10+commit.fc410830.Emscripten.clang"
  },
  "schemaVersion": "3.4.4",
  "updatedAt": "2022-01-19T07:52:02.582Z",
  "devdoc": {
    "kind": "dev",
    "methods": {},
    "version": 1
  },
  "userdoc": {
    "kind": "user",
    "methods": {},
    "version": 1
  }
}