{
  "contractName": "Doctor",
  "abi": [
    {
      "inputs": [
        {
          "internalType": "string",
          "name": "_name",
          "type": "string"
        },
        {
          "internalType": "string",
          "name": "_regNum",
          "type": "string"
        },
        {
          "internalType": "address",
          "name": "_doc_addr",
          "type": "address"
        }
      ],
      "name": "createDoctor",
      "outputs": [
        {
          "internalType": "bool",
          "name": "_isCreated",
          "type": "bool"
        }
      ],
      "stateMutability": "nonpayable",
      "type": "function"
    },
    {
      "inputs": [
        {
          "internalType": "address",
          "name": "id",
          "type": "address"
        }
      ],
      "name": "isDoctor",
      "outputs": [
        {
          "internalType": "bool",
          "name": "_is_doctor",
          "type": "bool"
        }
      ],
      "stateMutability": "view",
      "type": "function",
      "constant": true
    },
    {
      "inputs": [
        {
          "internalType": "address",
          "name": "_patientAddress",
          "type": "address"
        },
        {
          "internalType": "address",
          "name": "_doctorAddress",
          "type": "address"
        }
      ],
      "name": "hasPermissionToViewRecord",
      "outputs": [
        {
          "internalType": "bool",
          "name": "_hasPermission",
          "type": "bool"
        }
      ],
      "stateMutability": "view",
      "type": "function",
      "constant": true
    }
  ],
  "bytecode": "0x60806040526000805534801561001457600080fd5b5061089f806100246000396000f3fe608060405234801561001057600080fd5b50600436106100415760003560e01c8063209c932a146100465780632342c4be14610076578063996440c6146100a6575b600080fd5b610060600480360381019061005b91906105c7565b6100d6565b60405161006d919061066d565b60405180910390f35b610090600480360381019061008b9190610688565b61018b565b60405161009d919061066d565b60405180910390f35b6100c060048036038101906100bb91906106c8565b61021f565b6040516100cd919061066d565b60405180910390f35b60008060008154809291906100ea9061072e565b9190505550604051806040016040528085815260200184815250600260008473ffffffffffffffffffffffffffffffffffffffff1673ffffffffffffffffffffffffffffffffffffffff168152602001908152602001600020600082015181600001908051906020019061015f92919061036c565b50602082015181600101908051906020019061017c92919061036c565b50905050600190509392505050565b6000600360008473ffffffffffffffffffffffffffffffffffffffff1673ffffffffffffffffffffffffffffffffffffffff16815260200190815260200160002060008373ffffffffffffffffffffffffffffffffffffffff1673ffffffffffffffffffffffffffffffffffffffff16815260200190815260200160002060009054906101000a900460ff16905092915050565b600080600260008473ffffffffffffffffffffffffffffffffffffffff1673ffffffffffffffffffffffffffffffffffffffff168152602001908152602001600020600101805461026f906107a6565b80601f016020809104026020016040519081016040528092919081815260200182805461029b906107a6565b80156102e85780601f106102bd576101008083540402835291602001916102e8565b820191906000526020600020905b8154815290600101906020018083116102cb57829003601f168201915b505050505090506000604051806020016040528060008152509050806040516020016103149190610852565b604051602081830303815290604052805190602001208260405160200161033b9190610852565b6040516020818303038152906040528051906020012014156103605760019250610365565b600092505b5050919050565b828054610378906107a6565b90600052602060002090601f01602090048101928261039a57600085556103e1565b82601f106103b357805160ff19168380011785556103e1565b828001600101855582156103e1579182015b828111156103e05782518255916020019190600101906103c5565b5b5090506103ee91906103f2565b5090565b5b8082111561040b5760008160009055506001016103f3565b5090565b6000604051905090565b600080fd5b600080fd5b600080fd5b600080fd5b6000601f19601f8301169050919050565b7f4e487b7100000000000000000000000000000000000000000000000000000000600052604160045260246000fd5b6104768261042d565b810181811067ffffffffffffffff821117156104955761049461043e565b5b80604052505050565b60006104a861040f565b90506104b4828261046d565b919050565b600067ffffffffffffffff8211156104d4576104d361043e565b5b6104dd8261042d565b9050602081019050919050565b82818337600083830152505050565b600061050c610507846104b9565b61049e565b90508281526020810184848401111561052857610527610428565b5b6105338482856104ea565b509392505050565b600082601f8301126105505761054f610423565b5b81356105608482602086016104f9565b91505092915050565b600073ffffffffffffffffffffffffffffffffffffffff82169050919050565b600061059482610569565b9050919050565b6105a481610589565b81146105af57600080fd5b50565b6000813590506105c18161059b565b92915050565b6000806000606084860312156105e0576105df610419565b5b600084013567ffffffffffffffff8111156105fe576105fd61041e565b5b61060a8682870161053b565b935050602084013567ffffffffffffffff81111561062b5761062a61041e565b5b6106378682870161053b565b9250506040610648868287016105b2565b9150509250925092565b60008115159050919050565b61066781610652565b82525050565b6000602082019050610682600083018461065e565b92915050565b6000806040838503121561069f5761069e610419565b5b60006106ad858286016105b2565b92505060206106be858286016105b2565b9150509250929050565b6000602082840312156106de576106dd610419565b5b60006106ec848285016105b2565b91505092915050565b7f4e487b7100000000000000000000000000000000000000000000000000000000600052601160045260246000fd5b6000819050919050565b600061073982610724565b91507fffffffffffffffffffffffffffffffffffffffffffffffffffffffffffffffff82141561076c5761076b6106f5565b5b600182019050919050565b7f4e487b7100000000000000000000000000000000000000000000000000000000600052602260045260246000fd5b600060028204905060018216806107be57607f821691505b602082108114156107d2576107d1610777565b5b50919050565b600081519050919050565b600081905092915050565b60005b8381101561080c5780820151818401526020810190506107f1565b8381111561081b576000848401525b50505050565b600061082c826107d8565b61083681856107e3565b93506108468185602086016107ee565b80840191505092915050565b600061085e8284610821565b91508190509291505056fea264697066735822122048f49df2c20080b7431f29a28de9651a03a0adac048caae9572ab3a94c04357064736f6c634300080a0033",
  "immutableReferences": {},
  "source": "// SPDX-License-Identifier: MIT\npragma solidity >=0.4.22 <0.9.0;\nimport \"./Admin.sol\";\n\ncontract Doctor {\n    // Doctors[] DoctorsList;\n    // constructor() {\n    // }\n\n    // struct Doctors{\n    //   string registrationNumber;\n    //   string name;\n    //   address _doctor_address;\n    // }\n\n    // function getAllDoctors() public view returns (Doctors[] memory _all_doctors){\n    //   _all_doctors =  DoctorsList;\n    // }\n\n    // function registerDoctor(string memory _regNum, string memory _name, address _docAddr) public returns(bool _isRegistered){\n    //   Admin _admin_contract;\n    //   require(msg.sender == _admin_contract.MAIN_ADMIN());\n    //   DoctorsList.push(Doctors(_regNum, _name, _docAddr));\n    //   _isRegistered = true;\n    // }\n\n    // function isDoctor() public returns(bool){\n\n    // }\n\n    struct Doctors {\n        string name;\n        string registrationNumber;\n    }\n\n    uint256 doctorsCount = 0;\n    bool result;\n    mapping(address => Doctors) AllDoctors;\n    mapping(address => mapping(address => bool)) permittedDoctors;\n\n    function createDoctor(\n        string memory _name,\n        string memory _regNum,\n        address _doc_addr\n    ) public returns (bool _isCreated) {\n        doctorsCount++;\n        AllDoctors[_doc_addr] = Doctors(_name, _regNum);\n        _isCreated = true;\n    }\n\n    function isDoctor(address id) public view returns (bool _is_doctor) {\n        string memory temp = AllDoctors[id].registrationNumber;\n        string memory blank = \"\";\n        if (\n            keccak256(abi.encodePacked((temp))) ==\n            keccak256(abi.encodePacked((blank)))\n        ) {\n            _is_doctor = true;\n        } else _is_doctor = false;\n    }\n\n    function hasPermissionToViewRecord(\n        address _patientAddress,\n        address _doctorAddress\n    ) public view returns (bool _hasPermission) {\n        _hasPermission = permittedDoctors[_patientAddress][_doctorAddress];\n    }\n}\n",
  "sourcePath": "D:\\OrganDonationBlockchain\\contracts\\Doctor.sol",
  "compiler": {
    "name": "solc",
    "version": "0.8.10+commit.fc410830.Emscripten.clang"
  },
  "schemaVersion": "3.4.4",
  "updatedAt": "2022-01-17T17:04:31.948Z",
  "networkType": "ethereum",
  "devdoc": {
    "kind": "dev",
    "methods": {},
    "version": 1
  },
  "userdoc": {
    "kind": "user",
    "methods": {},
    "version": 1
  }
}