{
  "contractName": "Doctor",
  "abi": [
    {
      "inputs": [
        {
          "internalType": "address",
          "name": "",
          "type": "address"
        }
      ],
      "name": "AllDoctors",
      "outputs": [
        {
          "internalType": "string",
          "name": "name",
          "type": "string"
        },
        {
          "internalType": "string",
          "name": "registrationNumber",
          "type": "string"
        }
      ],
      "stateMutability": "view",
      "type": "function"
    },
    {
      "inputs": [],
      "name": "doctorsCount",
      "outputs": [
        {
          "internalType": "uint256",
          "name": "",
          "type": "uint256"
        }
      ],
      "stateMutability": "view",
      "type": "function"
    },
    {
      "inputs": [
        {
          "internalType": "address",
          "name": "",
          "type": "address"
        },
        {
          "internalType": "address",
          "name": "",
          "type": "address"
        }
      ],
      "name": "permittedDoctors",
      "outputs": [
        {
          "internalType": "bool",
          "name": "",
          "type": "bool"
        }
      ],
      "stateMutability": "view",
      "type": "function"
    },
    {
      "inputs": [
        {
          "internalType": "string",
          "name": "_name",
          "type": "string"
        },
        {
          "internalType": "string",
          "name": "_regNum",
          "type": "string"
        },
        {
          "internalType": "address",
          "name": "_doc_addr",
          "type": "address"
        }
      ],
      "name": "createDoctor",
      "outputs": [
        {
          "internalType": "bool",
          "name": "_isCreated",
          "type": "bool"
        }
      ],
      "stateMutability": "nonpayable",
      "type": "function"
    },
    {
      "inputs": [
        {
          "internalType": "address",
          "name": "id",
          "type": "address"
        }
      ],
      "name": "isDoctor",
      "outputs": [
        {
          "internalType": "bool",
          "name": "_is_doctor",
          "type": "bool"
        }
      ],
      "stateMutability": "view",
      "type": "function"
    },
    {
      "inputs": [
        {
          "internalType": "address",
          "name": "_patientAddress",
          "type": "address"
        },
        {
          "internalType": "address",
          "name": "_doctorAddress",
          "type": "address"
        }
      ],
      "name": "hasPermissionToViewRecord",
      "outputs": [
        {
          "internalType": "bool",
          "name": "_hasPermission",
          "type": "bool"
        }
      ],
      "stateMutability": "view",
      "type": "function"
    },
    {
      "inputs": [
        {
          "internalType": "address",
          "name": "_patientAddress",
          "type": "address"
        },
        {
          "internalType": "address",
          "name": "_doctorAddress",
          "type": "address"
        }
      ],
      "name": "givepermissionToViewRecord",
      "outputs": [],
      "stateMutability": "nonpayable",
      "type": "function"
    }
  ],
  "bytecode": "0x60806040526000805534801561001457600080fd5b50610c23806100246000396000f3fe608060405234801561001057600080fd5b506004361061007d5760003560e01c806382a7b87f1161005b57806382a7b87f14610100578063996440c61461011c5780639bd5a10a1461014c578063da6175fd1461017d5761007d565b806304bb9bc014610082578063209c932a146100a05780632342c4be146100d0575b600080fd5b61008a6101ad565b6040516100979190610701565b60405180910390f35b6100ba60048036038101906100b591906108d4565b6101b3565b6040516100c7919061097a565b60405180910390f35b6100ea60048036038101906100e59190610995565b610268565b6040516100f7919061097a565b60405180910390f35b61011a60048036038101906101159190610995565b6102fc565b005b610136600480360381019061013191906109d5565b610395565b604051610143919061097a565b60405180910390f35b610166600480360381019061016191906109d5565b6104e2565b604051610174929190610a8a565b60405180910390f35b61019760048036038101906101929190610995565b610616565b6040516101a4919061097a565b60405180910390f35b60005481565b60008060008154809291906101c790610af0565b9190505550604051806040016040528085815260200184815250600260008473ffffffffffffffffffffffffffffffffffffffff1673ffffffffffffffffffffffffffffffffffffffff168152602001908152602001600020600082015181600001908051906020019061023c929190610645565b506020820151816001019080519060200190610259929190610645565b50905050600190509392505050565b6000600360008473ffffffffffffffffffffffffffffffffffffffff1673ffffffffffffffffffffffffffffffffffffffff16815260200190815260200160002060008373ffffffffffffffffffffffffffffffffffffffff1673ffffffffffffffffffffffffffffffffffffffff16815260200190815260200160002060009054906101000a900460ff16905092915050565b6001600360008473ffffffffffffffffffffffffffffffffffffffff1673ffffffffffffffffffffffffffffffffffffffff16815260200190815260200160002060008373ffffffffffffffffffffffffffffffffffffffff1673ffffffffffffffffffffffffffffffffffffffff16815260200190815260200160002060006101000a81548160ff0219169083151502179055505050565b600080600260008473ffffffffffffffffffffffffffffffffffffffff1673ffffffffffffffffffffffffffffffffffffffff16815260200190815260200160002060010180546103e590610b68565b80601f016020809104026020016040519081016040528092919081815260200182805461041190610b68565b801561045e5780601f106104335761010080835404028352916020019161045e565b820191906000526020600020905b81548152906001019060200180831161044157829003601f168201915b5050505050905060006040518060200160405280600081525090508060405160200161048a9190610bd6565b60405160208183030381529060405280519060200120826040516020016104b19190610bd6565b6040516020818303038152906040528051906020012014156104d657600092506104db565b600192505b5050919050565b600260205280600052604060002060009150905080600001805461050590610b68565b80601f016020809104026020016040519081016040528092919081815260200182805461053190610b68565b801561057e5780601f106105535761010080835404028352916020019161057e565b820191906000526020600020905b81548152906001019060200180831161056157829003601f168201915b50505050509080600101805461059390610b68565b80601f01602080910402602001604051908101604052809291908181526020018280546105bf90610b68565b801561060c5780601f106105e15761010080835404028352916020019161060c565b820191906000526020600020905b8154815290600101906020018083116105ef57829003601f168201915b5050505050905082565b60036020528160005260406000206020528060005260406000206000915091509054906101000a900460ff1681565b82805461065190610b68565b90600052602060002090601f01602090048101928261067357600085556106ba565b82601f1061068c57805160ff19168380011785556106ba565b828001600101855582156106ba579182015b828111156106b957825182559160200191906001019061069e565b5b5090506106c791906106cb565b5090565b5b808211156106e45760008160009055506001016106cc565b5090565b6000819050919050565b6106fb816106e8565b82525050565b600060208201905061071660008301846106f2565b92915050565b6000604051905090565b600080fd5b600080fd5b600080fd5b600080fd5b6000601f19601f8301169050919050565b7f4e487b7100000000000000000000000000000000000000000000000000000000600052604160045260246000fd5b6107838261073a565b810181811067ffffffffffffffff821117156107a2576107a161074b565b5b80604052505050565b60006107b561071c565b90506107c1828261077a565b919050565b600067ffffffffffffffff8211156107e1576107e061074b565b5b6107ea8261073a565b9050602081019050919050565b82818337600083830152505050565b6000610819610814846107c6565b6107ab565b90508281526020810184848401111561083557610834610735565b5b6108408482856107f7565b509392505050565b600082601f83011261085d5761085c610730565b5b813561086d848260208601610806565b91505092915050565b600073ffffffffffffffffffffffffffffffffffffffff82169050919050565b60006108a182610876565b9050919050565b6108b181610896565b81146108bc57600080fd5b50565b6000813590506108ce816108a8565b92915050565b6000806000606084860312156108ed576108ec610726565b5b600084013567ffffffffffffffff81111561090b5761090a61072b565b5b61091786828701610848565b935050602084013567ffffffffffffffff8111156109385761093761072b565b5b61094486828701610848565b9250506040610955868287016108bf565b9150509250925092565b60008115159050919050565b6109748161095f565b82525050565b600060208201905061098f600083018461096b565b92915050565b600080604083850312156109ac576109ab610726565b5b60006109ba858286016108bf565b92505060206109cb858286016108bf565b9150509250929050565b6000602082840312156109eb576109ea610726565b5b60006109f9848285016108bf565b91505092915050565b600081519050919050565b600082825260208201905092915050565b60005b83811015610a3c578082015181840152602081019050610a21565b83811115610a4b576000848401525b50505050565b6000610a5c82610a02565b610a668185610a0d565b9350610a76818560208601610a1e565b610a7f8161073a565b840191505092915050565b60006040820190508181036000830152610aa48185610a51565b90508181036020830152610ab88184610a51565b90509392505050565b7f4e487b7100000000000000000000000000000000000000000000000000000000600052601160045260246000fd5b6000610afb826106e8565b91507fffffffffffffffffffffffffffffffffffffffffffffffffffffffffffffffff821415610b2e57610b2d610ac1565b5b600182019050919050565b7f4e487b7100000000000000000000000000000000000000000000000000000000600052602260045260246000fd5b60006002820490506001821680610b8057607f821691505b60208210811415610b9457610b93610b39565b5b50919050565b600081905092915050565b6000610bb082610a02565b610bba8185610b9a565b9350610bca818560208601610a1e565b80840191505092915050565b6000610be28284610ba5565b91508190509291505056fea2646970667358221220524453158e940843363e5c24dddb4f6935b754580fc1d7063ad92e1f9054e3b564736f6c634300080a0033",
  "immutableReferences": {},
  "source": "// SPDX-License-Identifier: MIT\npragma solidity >=0.4.22 <0.9.0;\nimport \"./Admin.sol\";\n\ncontract Doctor {\n    // Doctors[] DoctorsList;\n    // constructor() {\n    // }\n\n    // struct Doctors{\n    //   string registrationNumber;\n    //   string name;\n    //   address _doctor_address;\n    // }\n\n    // function getAllDoctors() public view returns (Doctors[] memory _all_doctors){\n    //   _all_doctors =  DoctorsList;\n    // }\n\n    // function registerDoctor(string memory _regNum, string memory _name, address _docAddr) public returns(bool _isRegistered){\n    //   Admin _admin_contract;\n    //   require(msg.sender == _admin_contract.MAIN_ADMIN());\n    //   DoctorsList.push(Doctors(_regNum, _name, _docAddr));\n    //   _isRegistered = true;\n    // }\n\n    // function isDoctor() public returns(bool){\n\n    // }\n\n    struct Doctors {\n        string name;\n        string registrationNumber;\n    }\n\n    uint256 public doctorsCount = 0;\n    bool result;\n    mapping(address => Doctors) public AllDoctors;\n    mapping(address => mapping(address => bool)) public permittedDoctors;\n\n    function createDoctor(\n        string memory _name,\n        string memory _regNum,\n        address _doc_addr\n    ) public returns (bool _isCreated) {\n        doctorsCount++;\n        AllDoctors[_doc_addr] = Doctors(_name, _regNum);\n        _isCreated = true;\n    }\n\n    function isDoctor(address id) public view returns (bool _is_doctor) {\n        string memory temp = AllDoctors[id].registrationNumber;\n        string memory blank = \"\";\n        if (\n            keccak256(abi.encodePacked((temp))) ==\n            keccak256(abi.encodePacked((blank)))\n        ) {\n            _is_doctor = false;\n        } else _is_doctor = true;\n    }\n\n    function hasPermissionToViewRecord(\n        address _patientAddress,\n        address _doctorAddress\n    ) public view returns (bool _hasPermission) {\n        _hasPermission = permittedDoctors[_patientAddress][_doctorAddress];\n    }\n\n    function givepermissionToViewRecord(address _patientAddress,\n        address _doctorAddress\n    ) public {\n        permittedDoctors[_patientAddress][_doctorAddress] = true;\n    }\n}\n",
  "sourcePath": "D:\\OrganDonationBlockchain\\contracts\\Doctor.sol",
  "compiler": {
    "name": "solc",
    "version": "0.8.10+commit.fc410830.Emscripten.clang"
  },
  "schemaVersion": "3.4.4",
  "updatedAt": "2022-01-19T07:52:02.593Z",
  "devdoc": {
    "kind": "dev",
    "methods": {},
    "version": 1
  },
  "userdoc": {
    "kind": "user",
    "methods": {},
    "version": 1
  }
}