{
  "contractName": "Doctor",
  "abi": [
    {
      "inputs": [
        {
          "internalType": "string",
          "name": "_name",
          "type": "string"
        },
        {
          "internalType": "string",
          "name": "_regNum",
          "type": "string"
        },
        {
          "internalType": "address",
          "name": "_doc_addr",
          "type": "address"
        }
      ],
      "name": "createDoctor",
      "outputs": [
        {
          "internalType": "bool",
          "name": "_isCreated",
          "type": "bool"
        }
      ],
      "stateMutability": "nonpayable",
      "type": "function"
    },
    {
      "inputs": [
        {
          "internalType": "address",
          "name": "id",
          "type": "address"
        }
      ],
      "name": "isDoctor",
      "outputs": [
        {
          "internalType": "bool",
          "name": "_is_doctor",
          "type": "bool"
        }
      ],
      "stateMutability": "view",
      "type": "function"
    }
  ],
  "bytecode": "0x60806040526000805534801561001457600080fd5b50610790806100246000396000f3fe608060405234801561001057600080fd5b50600436106100365760003560e01c8063209c932a1461003b578063996440c61461006b575b600080fd5b610055600480360381019061005091906104f8565b61009b565b604051610062919061059e565b60405180910390f35b610085600480360381019061008091906105b9565b610150565b604051610092919061059e565b60405180910390f35b60008060008154809291906100af9061061f565b9190505550604051806040016040528085815260200184815250600260008473ffffffffffffffffffffffffffffffffffffffff1673ffffffffffffffffffffffffffffffffffffffff168152602001908152602001600020600082015181600001908051906020019061012492919061029d565b50602082015181600101908051906020019061014192919061029d565b50905050600190509392505050565b600080600260008473ffffffffffffffffffffffffffffffffffffffff1673ffffffffffffffffffffffffffffffffffffffff16815260200190815260200160002060010180546101a090610697565b80601f01602080910402602001604051908101604052809291908181526020018280546101cc90610697565b80156102195780601f106101ee57610100808354040283529160200191610219565b820191906000526020600020905b8154815290600101906020018083116101fc57829003601f168201915b505050505090506000604051806020016040528060008152509050806040516020016102459190610743565b604051602081830303815290604052805190602001208260405160200161026c9190610743565b6040516020818303038152906040528051906020012014156102915760019250610296565b600092505b5050919050565b8280546102a990610697565b90600052602060002090601f0160209004810192826102cb5760008555610312565b82601f106102e457805160ff1916838001178555610312565b82800160010185558215610312579182015b828111156103115782518255916020019190600101906102f6565b5b50905061031f9190610323565b5090565b5b8082111561033c576000816000905550600101610324565b5090565b6000604051905090565b600080fd5b600080fd5b600080fd5b600080fd5b6000601f19601f8301169050919050565b7f4e487b7100000000000000000000000000000000000000000000000000000000600052604160045260246000fd5b6103a78261035e565b810181811067ffffffffffffffff821117156103c6576103c561036f565b5b80604052505050565b60006103d9610340565b90506103e5828261039e565b919050565b600067ffffffffffffffff8211156104055761040461036f565b5b61040e8261035e565b9050602081019050919050565b82818337600083830152505050565b600061043d610438846103ea565b6103cf565b90508281526020810184848401111561045957610458610359565b5b61046484828561041b565b509392505050565b600082601f83011261048157610480610354565b5b813561049184826020860161042a565b91505092915050565b600073ffffffffffffffffffffffffffffffffffffffff82169050919050565b60006104c58261049a565b9050919050565b6104d5816104ba565b81146104e057600080fd5b50565b6000813590506104f2816104cc565b92915050565b6000806000606084860312156105115761051061034a565b5b600084013567ffffffffffffffff81111561052f5761052e61034f565b5b61053b8682870161046c565b935050602084013567ffffffffffffffff81111561055c5761055b61034f565b5b6105688682870161046c565b9250506040610579868287016104e3565b9150509250925092565b60008115159050919050565b61059881610583565b82525050565b60006020820190506105b3600083018461058f565b92915050565b6000602082840312156105cf576105ce61034a565b5b60006105dd848285016104e3565b91505092915050565b7f4e487b7100000000000000000000000000000000000000000000000000000000600052601160045260246000fd5b6000819050919050565b600061062a82610615565b91507fffffffffffffffffffffffffffffffffffffffffffffffffffffffffffffffff82141561065d5761065c6105e6565b5b600182019050919050565b7f4e487b7100000000000000000000000000000000000000000000000000000000600052602260045260246000fd5b600060028204905060018216806106af57607f821691505b602082108114156106c3576106c2610668565b5b50919050565b600081519050919050565b600081905092915050565b60005b838110156106fd5780820151818401526020810190506106e2565b8381111561070c576000848401525b50505050565b600061071d826106c9565b61072781856106d4565b93506107378185602086016106df565b80840191505092915050565b600061074f8284610712565b91508190509291505056fea26469706673582212202f52b7fb1ac98d20e70fc38a94eaf704e0a7569d08fd0ad8095b8831719ee66864736f6c634300080a0033",
  "immutableReferences": {},
  "source": "// SPDX-License-Identifier: MIT\npragma solidity >=0.4.22 <0.9.0;\nimport \"./Admin.sol\";\n\ncontract Doctor {\n    // Doctors[] DoctorsList;\n    // constructor() {\n    // }\n\n    // struct Doctors{\n    //   string registrationNumber;\n    //   string name;\n    //   address _doctor_address;\n    // }\n\n    // function getAllDoctors() public view returns (Doctors[] memory _all_doctors){\n    //   _all_doctors =  DoctorsList;\n    // }\n\n    // function registerDoctor(string memory _regNum, string memory _name, address _docAddr) public returns(bool _isRegistered){\n    //   Admin _admin_contract;\n    //   require(msg.sender == _admin_contract.MAIN_ADMIN());\n    //   DoctorsList.push(Doctors(_regNum, _name, _docAddr));\n    //   _isRegistered = true;\n    // }\n\n    // function isDoctor() public returns(bool){\n\n    // }\n\n    struct Doctors {\n        string name;\n        string registrationNumber;\n    }\n\n    uint256 doctorsCount = 0;\n    bool result;\n    mapping(address => Doctors) AllDoctors;\n\n    function createDoctor(\n        string memory _name,\n        string memory _regNum,\n        address _doc_addr\n    ) public returns (bool _isCreated) {\n        doctorsCount++;\n        AllDoctors[_doc_addr] = Doctors(_name, _regNum);\n        _isCreated = true;\n    }\n\n    function isDoctor(address id) public view returns (bool _is_doctor) {\n        string memory temp = AllDoctors[id].registrationNumber;\n        string memory blank = \"\";\n        if (\n            keccak256(abi.encodePacked((temp))) ==\n            keccak256(abi.encodePacked((blank)))\n        ) {\n            _is_doctor = true;\n        } else _is_doctor = false;\n    }\n}\n",
  "sourcePath": "D:\\OrganDonationBlockchain\\contracts\\Doctor.sol",
  "compiler": {
    "name": "solc",
    "version": "0.8.10+commit.fc410830.Emscripten.clang"
  },
  "schemaVersion": "3.4.4",
  "updatedAt": "2022-01-10T13:25:18.308Z",
  "devdoc": {
    "kind": "dev",
    "methods": {},
    "version": 1
  },
  "userdoc": {
    "kind": "user",
    "methods": {},
    "version": 1
  }
}