{
  "contractName": "Donor",
  "abi": [
    {
      "inputs": [],
      "stateMutability": "nonpayable",
      "type": "constructor"
    },
    {
      "inputs": [
        {
          "internalType": "address",
          "name": "",
          "type": "address"
        }
      ],
      "name": "allDonors",
      "outputs": [
        {
          "internalType": "string",
          "name": "name",
          "type": "string"
        },
        {
          "internalType": "string",
          "name": "tempAddress",
          "type": "string"
        },
        {
          "internalType": "string",
          "name": "permAddress",
          "type": "string"
        },
        {
          "internalType": "string",
          "name": "phoneNo",
          "type": "string"
        },
        {
          "internalType": "string",
          "name": "age",
          "type": "string"
        },
        {
          "internalType": "string",
          "name": "sex",
          "type": "string"
        },
        {
          "internalType": "string",
          "name": "bloodGroup",
          "type": "string"
        },
        {
          "internalType": "string",
          "name": "donatingOrgans",
          "type": "string"
        },
        {
          "internalType": "address",
          "name": "donorAddress",
          "type": "address"
        },
        {
          "internalType": "bool",
          "name": "isValidDonor",
          "type": "bool"
        }
      ],
      "stateMutability": "view",
      "type": "function"
    },
    {
      "inputs": [
        {
          "internalType": "string",
          "name": "_name",
          "type": "string"
        },
        {
          "internalType": "string",
          "name": "_tempAddr",
          "type": "string"
        },
        {
          "internalType": "string",
          "name": "_permAddr",
          "type": "string"
        },
        {
          "internalType": "string",
          "name": "_phoneNo",
          "type": "string"
        },
        {
          "internalType": "string",
          "name": "_age",
          "type": "string"
        },
        {
          "internalType": "string",
          "name": "_sex",
          "type": "string"
        },
        {
          "internalType": "string",
          "name": "_bloodGroup",
          "type": "string"
        },
        {
          "internalType": "string",
          "name": "_organs",
          "type": "string"
        },
        {
          "internalType": "address",
          "name": "_donorAddress",
          "type": "address"
        },
        {
          "internalType": "bool",
          "name": "_isValidDonor",
          "type": "bool"
        }
      ],
      "name": "createDonor",
      "outputs": [],
      "stateMutability": "nonpayable",
      "type": "function"
    },
    {
      "inputs": [
        {
          "internalType": "address",
          "name": "_donorAddress",
          "type": "address"
        },
        {
          "internalType": "address",
          "name": "_patientAddress",
          "type": "address"
        }
      ],
      "name": "provideConsentForDonation",
      "outputs": [],
      "stateMutability": "nonpayable",
      "type": "function"
    },
    {
      "inputs": [
        {
          "internalType": "address",
          "name": "_donorAddress",
          "type": "address"
        },
        {
          "internalType": "address",
          "name": "_patientAddress",
          "type": "address"
        }
      ],
      "name": "checkForConsent",
      "outputs": [
        {
          "internalType": "bool",
          "name": "_consented",
          "type": "bool"
        }
      ],
      "stateMutability": "view",
      "type": "function"
    },
    {
      "inputs": [
        {
          "internalType": "address",
          "name": "_donorAddr",
          "type": "address"
        },
        {
          "internalType": "address",
          "name": "_approvedBy",
          "type": "address"
        }
      ],
      "name": "setDonorAsValid",
      "outputs": [],
      "stateMutability": "nonpayable",
      "type": "function"
    },
    {
      "inputs": [
        {
          "internalType": "address",
          "name": "_donorAddr",
          "type": "address"
        },
        {
          "internalType": "address",
          "name": "_approvedBy",
          "type": "address"
        }
      ],
      "name": "setDonorAsInValid",
      "outputs": [],
      "stateMutability": "nonpayable",
      "type": "function"
    },
    {
      "inputs": [
        {
          "internalType": "address",
          "name": "_donorAddr",
          "type": "address"
        }
      ],
      "name": "isValidDonor",
      "outputs": [
        {
          "internalType": "bool",
          "name": "result",
          "type": "bool"
        }
      ],
      "stateMutability": "nonpayable",
      "type": "function"
    },
    {
      "inputs": [
        {
          "internalType": "address",
          "name": "_donorAddr",
          "type": "address"
        }
      ],
      "name": "existsDonor",
      "outputs": [
        {
          "internalType": "bool",
          "name": "result",
          "type": "bool"
        }
      ],
      "stateMutability": "view",
      "type": "function"
    }
  ],
  "bytecode": "0x60806040526000600355600060045534801561001a57600080fd5b506114a28061002a6000396000f3fe608060405234801561001057600080fd5b50600436106100885760003560e01c80634d148f401161005b5780634d148f40146101115780638b24db1a1461014a5780638e5f8c101461017a578063d94b9efb1461019657610088565b80630d046a5d1461008d5780630d8274c2146100bd57806310b68a33146100d9578063381b2545146100f5575b600080fd5b6100a760048036038101906100a29190610e20565b6101c6565b6040516100b49190610e7b565b60405180910390f35b6100d760048036038101906100d29190610e20565b61025a565b005b6100f360048036038101906100ee9190610e20565b61034e565b005b61010f600480360381019061010a9190610e20565b610442565b005b61012b60048036038101906101269190610e96565b6104da565b6040516101419a99989796959493929190610f6b565b60405180910390f35b610164600480360381019061015f9190610e96565b61099b565b6040516101719190610e7b565b60405180910390f35b610194600480360381019061018f91906111a0565b610a4d565b005b6101b060048036038101906101ab9190610e96565b610c61565b6040516101bd9190610e7b565b60405180910390f35b6000600160008473ffffffffffffffffffffffffffffffffffffffff1673ffffffffffffffffffffffffffffffffffffffff16815260200190815260200160002060008373ffffffffffffffffffffffffffffffffffffffff1673ffffffffffffffffffffffffffffffffffffffff16815260200190815260200160002060009054906101000a900460ff16905092915050565b60016000808473ffffffffffffffffffffffffffffffffffffffff1673ffffffffffffffffffffffffffffffffffffffff16815260200190815260200160002060080160146101000a81548160ff02191690831515021790555080600260008473ffffffffffffffffffffffffffffffffffffffff1673ffffffffffffffffffffffffffffffffffffffff16815260200190815260200160002060006101000a81548173ffffffffffffffffffffffffffffffffffffffff021916908373ffffffffffffffffffffffffffffffffffffffff1602179055506004600081548092919061034590611398565b91905055505050565b60008060008473ffffffffffffffffffffffffffffffffffffffff1673ffffffffffffffffffffffffffffffffffffffff16815260200190815260200160002060080160146101000a81548160ff02191690831515021790555080600260008473ffffffffffffffffffffffffffffffffffffffff1673ffffffffffffffffffffffffffffffffffffffff16815260200190815260200160002060006101000a81548173ffffffffffffffffffffffffffffffffffffffff021916908373ffffffffffffffffffffffffffffffffffffffff16021790555060046000815480929190610439906113e1565b91905055505050565b60018060008473ffffffffffffffffffffffffffffffffffffffff1673ffffffffffffffffffffffffffffffffffffffff16815260200190815260200160002060008373ffffffffffffffffffffffffffffffffffffffff1673ffffffffffffffffffffffffffffffffffffffff16815260200190815260200160002060006101000a81548160ff0219169083151502179055505050565b60006020528060005260406000206000915090508060000180546104fd9061143a565b80601f01602080910402602001604051908101604052809291908181526020018280546105299061143a565b80156105765780601f1061054b57610100808354040283529160200191610576565b820191906000526020600020905b81548152906001019060200180831161055957829003601f168201915b50505050509080600101805461058b9061143a565b80601f01602080910402602001604051908101604052809291908181526020018280546105b79061143a565b80156106045780601f106105d957610100808354040283529160200191610604565b820191906000526020600020905b8154815290600101906020018083116105e757829003601f168201915b5050505050908060020180546106199061143a565b80601f01602080910402602001604051908101604052809291908181526020018280546106459061143a565b80156106925780601f1061066757610100808354040283529160200191610692565b820191906000526020600020905b81548152906001019060200180831161067557829003601f168201915b5050505050908060030180546106a79061143a565b80601f01602080910402602001604051908101604052809291908181526020018280546106d39061143a565b80156107205780601f106106f557610100808354040283529160200191610720565b820191906000526020600020905b81548152906001019060200180831161070357829003601f168201915b5050505050908060040180546107359061143a565b80601f01602080910402602001604051908101604052809291908181526020018280546107619061143a565b80156107ae5780601f10610783576101008083540402835291602001916107ae565b820191906000526020600020905b81548152906001019060200180831161079157829003601f168201915b5050505050908060050180546107c39061143a565b80601f01602080910402602001604051908101604052809291908181526020018280546107ef9061143a565b801561083c5780601f106108115761010080835404028352916020019161083c565b820191906000526020600020905b81548152906001019060200180831161081f57829003601f168201915b5050505050908060060180546108519061143a565b80601f016020809104026020016040519081016040528092919081815260200182805461087d9061143a565b80156108ca5780601f1061089f576101008083540402835291602001916108ca565b820191906000526020600020905b8154815290600101906020018083116108ad57829003601f168201915b5050505050908060070180546108df9061143a565b80601f016020809104026020016040519081016040528092919081815260200182805461090b9061143a565b80156109585780601f1061092d57610100808354040283529160200191610958565b820191906000526020600020905b81548152906001019060200180831161093b57829003601f168201915b5050505050908060080160009054906101000a900473ffffffffffffffffffffffffffffffffffffffff16908060080160149054906101000a900460ff1690508a565b600060016000808473ffffffffffffffffffffffffffffffffffffffff1673ffffffffffffffffffffffffffffffffffffffff16815260200190815260200160002060080160146101000a81548160ff0219169083151502179055506000808373ffffffffffffffffffffffffffffffffffffffff1673ffffffffffffffffffffffffffffffffffffffff16815260200190815260200160002060080160149054906101000a900460ff169050919050565b60036000815480929190610a6090611398565b91905055506040518061014001604052808b81526020018a81526020018981526020018881526020018781526020018681526020018581526020018481526020018373ffffffffffffffffffffffffffffffffffffffff1681526020018215158152506000808473ffffffffffffffffffffffffffffffffffffffff1673ffffffffffffffffffffffffffffffffffffffff1681526020019081526020016000206000820151816000019080519060200190610b1d929190610d0b565b506020820151816001019080519060200190610b3a929190610d0b565b506040820151816002019080519060200190610b57929190610d0b565b506060820151816003019080519060200190610b74929190610d0b565b506080820151816004019080519060200190610b91929190610d0b565b5060a0820151816005019080519060200190610bae929190610d0b565b5060c0820151816006019080519060200190610bcb929190610d0b565b5060e0820151816007019080519060200190610be8929190610d0b565b506101008201518160080160006101000a81548173ffffffffffffffffffffffffffffffffffffffff021916908373ffffffffffffffffffffffffffffffffffffffff1602179055506101208201518160080160146101000a81548160ff02191690831515021790555090505050505050505050505050565b60008073ffffffffffffffffffffffffffffffffffffffff166000808473ffffffffffffffffffffffffffffffffffffffff1673ffffffffffffffffffffffffffffffffffffffff16815260200190815260200160002060080160009054906101000a900473ffffffffffffffffffffffffffffffffffffffff1673ffffffffffffffffffffffffffffffffffffffff161415610d015760009050610d06565b600190505b919050565b828054610d179061143a565b90600052602060002090601f016020900481019282610d395760008555610d80565b82601f10610d5257805160ff1916838001178555610d80565b82800160010185558215610d80579182015b82811115610d7f578251825591602001919060010190610d64565b5b509050610d8d9190610d91565b5090565b5b80821115610daa576000816000905550600101610d92565b5090565b6000604051905090565b600080fd5b600080fd5b600073ffffffffffffffffffffffffffffffffffffffff82169050919050565b6000610ded82610dc2565b9050919050565b610dfd81610de2565b8114610e0857600080fd5b50565b600081359050610e1a81610df4565b92915050565b60008060408385031215610e3757610e36610db8565b5b6000610e4585828601610e0b565b9250506020610e5685828601610e0b565b9150509250929050565b60008115159050919050565b610e7581610e60565b82525050565b6000602082019050610e906000830184610e6c565b92915050565b600060208284031215610eac57610eab610db8565b5b6000610eba84828501610e0b565b91505092915050565b600081519050919050565b600082825260208201905092915050565b60005b83811015610efd578082015181840152602081019050610ee2565b83811115610f0c576000848401525b50505050565b6000601f19601f8301169050919050565b6000610f2e82610ec3565b610f388185610ece565b9350610f48818560208601610edf565b610f5181610f12565b840191505092915050565b610f6581610de2565b82525050565b6000610140820190508181036000830152610f86818d610f23565b90508181036020830152610f9a818c610f23565b90508181036040830152610fae818b610f23565b90508181036060830152610fc2818a610f23565b90508181036080830152610fd68189610f23565b905081810360a0830152610fea8188610f23565b905081810360c0830152610ffe8187610f23565b905081810360e08301526110128186610f23565b9050611022610100830185610f5c565b611030610120830184610e6c565b9b9a5050505050505050505050565b600080fd5b600080fd5b7f4e487b7100000000000000000000000000000000000000000000000000000000600052604160045260246000fd5b61108182610f12565b810181811067ffffffffffffffff821117156110a05761109f611049565b5b80604052505050565b60006110b3610dae565b90506110bf8282611078565b919050565b600067ffffffffffffffff8211156110df576110de611049565b5b6110e882610f12565b9050602081019050919050565b82818337600083830152505050565b6000611117611112846110c4565b6110a9565b90508281526020810184848401111561113357611132611044565b5b61113e8482856110f5565b509392505050565b600082601f83011261115b5761115a61103f565b5b813561116b848260208601611104565b91505092915050565b61117d81610e60565b811461118857600080fd5b50565b60008135905061119a81611174565b92915050565b6000806000806000806000806000806101408b8d0312156111c4576111c3610db8565b5b60008b013567ffffffffffffffff8111156111e2576111e1610dbd565b5b6111ee8d828e01611146565b9a505060208b013567ffffffffffffffff81111561120f5761120e610dbd565b5b61121b8d828e01611146565b99505060408b013567ffffffffffffffff81111561123c5761123b610dbd565b5b6112488d828e01611146565b98505060608b013567ffffffffffffffff81111561126957611268610dbd565b5b6112758d828e01611146565b97505060808b013567ffffffffffffffff81111561129657611295610dbd565b5b6112a28d828e01611146565b96505060a08b013567ffffffffffffffff8111156112c3576112c2610dbd565b5b6112cf8d828e01611146565b95505060c08b013567ffffffffffffffff8111156112f0576112ef610dbd565b5b6112fc8d828e01611146565b94505060e08b013567ffffffffffffffff81111561131d5761131c610dbd565b5b6113298d828e01611146565b93505061010061133b8d828e01610e0b565b92505061012061134d8d828e0161118b565b9150509295989b9194979a5092959850565b7f4e487b7100000000000000000000000000000000000000000000000000000000600052601160045260246000fd5b6000819050919050565b60006113a38261138e565b91507fffffffffffffffffffffffffffffffffffffffffffffffffffffffffffffffff8214156113d6576113d561135f565b5b600182019050919050565b60006113ec8261138e565b91506000821415611400576113ff61135f565b5b600182039050919050565b7f4e487b7100000000000000000000000000000000000000000000000000000000600052602260045260246000fd5b6000600282049050600182168061145257607f821691505b602082108114156114665761146561140b565b5b5091905056fea264697066735822122067864375cb8f58d8f5613c2bc9f5e115b749e0a82d7eb943194f2fc6a8be115564736f6c634300080a0033",
  "immutableReferences": {},
  "source": "// SPDX-License-Identifier: MIT\npragma solidity >=0.4.22 <0.9.0;\n\ncontract Donor {\n    constructor() {}\n\n    // Donors[] allDonors;\n    mapping(address => Donors) public allDonors;\n    mapping(address => mapping(address => bool)) consentsProvided;\n    mapping(address => address) validDonors;\n    uint256 donorsCount = 0;\n    uint256 validDonorsCount = 0;\n\n    struct Donors {\n        string name;\n        string tempAddress;\n        string permAddress;\n        string phoneNo;\n        string age;\n        string sex;\n        string bloodGroup;\n        string donatingOrgans;\n        address donorAddress;\n        bool isValidDonor;\n    }\n\n    function createDonor(\n        string memory _name,\n        string memory _tempAddr,\n        string memory _permAddr,\n        string memory _phoneNo,\n        string memory _age,\n        string memory _sex,\n        string memory _bloodGroup,\n        string memory _organs,\n        address _donorAddress,\n        bool _isValidDonor\n    ) public {\n        donorsCount++;\n\n        allDonors[_donorAddress] = Donors(\n            _name,\n            _tempAddr,\n            _permAddr,\n            _phoneNo,\n            _age,\n            _sex,\n            _bloodGroup,\n            _organs,\n            _donorAddress,\n            _isValidDonor\n        );\n    }\n\n    /**\n    @dev - consent provided for donating to patient\n     */\n    function provideConsentForDonation(\n        address _donorAddress,\n        address _patientAddress\n    ) public {\n        consentsProvided[_donorAddress][_patientAddress] = true;\n    }\n\n    /**\n    @dev - check if consent is available for the patient address\n     */\n    function checkForConsent(address _donorAddress, address _patientAddress)\n        public\n        view\n        returns (bool _consented)\n    {\n        _consented = consentsProvided[_donorAddress][_patientAddress];\n    }\n\n    function setDonorAsValid(address _donorAddr, address _approvedBy) public {\n        allDonors[_donorAddr].isValidDonor = true;\n        validDonors[_donorAddr] = _approvedBy;\n        validDonorsCount++;\n    }\n\n    /**\n    @dev - set donor as invalid and adress of the one setting it.\n     */\n    function setDonorAsInValid(address _donorAddr, address _approvedBy) public {\n        allDonors[_donorAddr].isValidDonor = false;\n        validDonors[_donorAddr] = _approvedBy;\n        validDonorsCount--;\n    }\n\n    /** \n    @param _donorAddr address of the donor that is registered \n    */\n    function isValidDonor(address _donorAddr) public returns (bool result) {\n        allDonors[_donorAddr].isValidDonor = true;\n        result = allDonors[_donorAddr].isValidDonor;\n    }\n\n    function existsDonor(address _donorAddr) public view returns (bool result) {\n        if (allDonors[_donorAddr].donorAddress == address(0)) {\n            result = false;\n        } else result = true;\n    }\n}\n",
  "sourcePath": "D:\\OrganDonationBlockchain\\contracts\\Donor.sol",
  "compiler": {
    "name": "solc",
    "version": "0.8.10+commit.fc410830.Emscripten.clang"
  },
  "schemaVersion": "3.4.4",
  "updatedAt": "2022-01-19T07:52:02.634Z",
  "devdoc": {
    "kind": "dev",
    "methods": {
      "checkForConsent(address,address)": {
        "details": "- check if consent is available for the patient address"
      },
      "isValidDonor(address)": {
        "params": {
          "_donorAddr": "address of the donor that is registered "
        }
      },
      "provideConsentForDonation(address,address)": {
        "details": "- consent provided for donating to patient"
      },
      "setDonorAsInValid(address,address)": {
        "details": "- set donor as invalid and adress of the one setting it."
      }
    },
    "version": 1
  },
  "userdoc": {
    "kind": "user",
    "methods": {},
    "version": 1
  }
}