{
  "contractName": "Donor",
  "abi": [
    {
      "inputs": [],
      "stateMutability": "nonpayable",
      "type": "constructor"
    },
    {
      "inputs": [
        {
          "internalType": "string",
          "name": "_name",
          "type": "string"
        },
        {
          "internalType": "string",
          "name": "_tempAddr",
          "type": "string"
        },
        {
          "internalType": "string",
          "name": "_permAddr",
          "type": "string"
        },
        {
          "internalType": "string",
          "name": "_phoneNo",
          "type": "string"
        },
        {
          "internalType": "string",
          "name": "_age",
          "type": "string"
        },
        {
          "internalType": "string",
          "name": "_sex",
          "type": "string"
        },
        {
          "internalType": "string",
          "name": "_bloodGroup",
          "type": "string"
        },
        {
          "internalType": "string",
          "name": "_organs",
          "type": "string"
        },
        {
          "internalType": "address",
          "name": "_donorAddress",
          "type": "address"
        },
        {
          "internalType": "bool",
          "name": "_isValidDonor",
          "type": "bool"
        }
      ],
      "name": "createDonor",
      "outputs": [],
      "stateMutability": "nonpayable",
      "type": "function"
    },
    {
      "inputs": [
        {
          "internalType": "address",
          "name": "_donorAddress",
          "type": "address"
        },
        {
          "internalType": "address",
          "name": "_patientAddress",
          "type": "address"
        }
      ],
      "name": "provideConsentForDonation",
      "outputs": [],
      "stateMutability": "nonpayable",
      "type": "function"
    },
    {
      "inputs": [
        {
          "internalType": "address",
          "name": "_donorAddress",
          "type": "address"
        },
        {
          "internalType": "address",
          "name": "_patientAddress",
          "type": "address"
        }
      ],
      "name": "checkForConsent",
      "outputs": [
        {
          "internalType": "bool",
          "name": "_consented",
          "type": "bool"
        }
      ],
      "stateMutability": "view",
      "type": "function",
      "constant": true
    },
    {
      "inputs": [
        {
          "internalType": "address",
          "name": "_donorAddr",
          "type": "address"
        },
        {
          "internalType": "address",
          "name": "_approvedBy",
          "type": "address"
        }
      ],
      "name": "setDonorAsValid",
      "outputs": [],
      "stateMutability": "nonpayable",
      "type": "function"
    },
    {
      "inputs": [
        {
          "internalType": "address",
          "name": "_donorAddr",
          "type": "address"
        },
        {
          "internalType": "address",
          "name": "_approvedBy",
          "type": "address"
        }
      ],
      "name": "setDonorAsInValid",
      "outputs": [],
      "stateMutability": "nonpayable",
      "type": "function"
    }
  ],
  "bytecode": "0x60806040526000600355600060045534801561001a57600080fd5b50610c238061002a6000396000f3fe608060405234801561001057600080fd5b50600436106100575760003560e01c80630d046a5d1461005c5780630d8274c21461008c57806310b68a33146100a8578063381b2545146100c45780638e5f8c10146100e0575b600080fd5b61007660048036038101906100719190610739565b6100fc565b6040516100839190610794565b60405180910390f35b6100a660048036038101906100a19190610739565b610190565b005b6100c260048036038101906100bd9190610739565b610284565b005b6100de60048036038101906100d99190610739565b610378565b005b6100fa60048036038101906100f59190610921565b610410565b005b6000600160008473ffffffffffffffffffffffffffffffffffffffff1673ffffffffffffffffffffffffffffffffffffffff16815260200190815260200160002060008373ffffffffffffffffffffffffffffffffffffffff1673ffffffffffffffffffffffffffffffffffffffff16815260200190815260200160002060009054906101000a900460ff16905092915050565b60016000808473ffffffffffffffffffffffffffffffffffffffff1673ffffffffffffffffffffffffffffffffffffffff16815260200190815260200160002060080160146101000a81548160ff02191690831515021790555080600260008473ffffffffffffffffffffffffffffffffffffffff1673ffffffffffffffffffffffffffffffffffffffff16815260200190815260200160002060006101000a81548173ffffffffffffffffffffffffffffffffffffffff021916908373ffffffffffffffffffffffffffffffffffffffff1602179055506004600081548092919061027b90610b19565b91905055505050565b60008060008473ffffffffffffffffffffffffffffffffffffffff1673ffffffffffffffffffffffffffffffffffffffff16815260200190815260200160002060080160146101000a81548160ff02191690831515021790555080600260008473ffffffffffffffffffffffffffffffffffffffff1673ffffffffffffffffffffffffffffffffffffffff16815260200190815260200160002060006101000a81548173ffffffffffffffffffffffffffffffffffffffff021916908373ffffffffffffffffffffffffffffffffffffffff1602179055506004600081548092919061036f90610b62565b91905055505050565b60018060008473ffffffffffffffffffffffffffffffffffffffff1673ffffffffffffffffffffffffffffffffffffffff16815260200190815260200160002060008373ffffffffffffffffffffffffffffffffffffffff1673ffffffffffffffffffffffffffffffffffffffff16815260200190815260200160002060006101000a81548160ff0219169083151502179055505050565b6003600081548092919061042390610b19565b91905055506040518061014001604052808b81526020018a81526020018981526020018881526020018781526020018681526020018581526020018481526020018373ffffffffffffffffffffffffffffffffffffffff1681526020018215158152506000808473ffffffffffffffffffffffffffffffffffffffff1673ffffffffffffffffffffffffffffffffffffffff16815260200190815260200160002060008201518160000190805190602001906104e0929190610624565b5060208201518160010190805190602001906104fd929190610624565b50604082015181600201908051906020019061051a929190610624565b506060820151816003019080519060200190610537929190610624565b506080820151816004019080519060200190610554929190610624565b5060a0820151816005019080519060200190610571929190610624565b5060c082015181600601908051906020019061058e929190610624565b5060e08201518160070190805190602001906105ab929190610624565b506101008201518160080160006101000a81548173ffffffffffffffffffffffffffffffffffffffff021916908373ffffffffffffffffffffffffffffffffffffffff1602179055506101208201518160080160146101000a81548160ff02191690831515021790555090505050505050505050505050565b82805461063090610bbb565b90600052602060002090601f0160209004810192826106525760008555610699565b82601f1061066b57805160ff1916838001178555610699565b82800160010185558215610699579182015b8281111561069857825182559160200191906001019061067d565b5b5090506106a691906106aa565b5090565b5b808211156106c35760008160009055506001016106ab565b5090565b6000604051905090565b600080fd5b600080fd5b600073ffffffffffffffffffffffffffffffffffffffff82169050919050565b6000610706826106db565b9050919050565b610716816106fb565b811461072157600080fd5b50565b6000813590506107338161070d565b92915050565b600080604083850312156107505761074f6106d1565b5b600061075e85828601610724565b925050602061076f85828601610724565b9150509250929050565b60008115159050919050565b61078e81610779565b82525050565b60006020820190506107a96000830184610785565b92915050565b600080fd5b600080fd5b6000601f19601f8301169050919050565b7f4e487b7100000000000000000000000000000000000000000000000000000000600052604160045260246000fd5b610802826107b9565b810181811067ffffffffffffffff82111715610821576108206107ca565b5b80604052505050565b60006108346106c7565b905061084082826107f9565b919050565b600067ffffffffffffffff8211156108605761085f6107ca565b5b610869826107b9565b9050602081019050919050565b82818337600083830152505050565b600061089861089384610845565b61082a565b9050828152602081018484840111156108b4576108b36107b4565b5b6108bf848285610876565b509392505050565b600082601f8301126108dc576108db6107af565b5b81356108ec848260208601610885565b91505092915050565b6108fe81610779565b811461090957600080fd5b50565b60008135905061091b816108f5565b92915050565b6000806000806000806000806000806101408b8d031215610945576109446106d1565b5b60008b013567ffffffffffffffff811115610963576109626106d6565b5b61096f8d828e016108c7565b9a505060208b013567ffffffffffffffff8111156109905761098f6106d6565b5b61099c8d828e016108c7565b99505060408b013567ffffffffffffffff8111156109bd576109bc6106d6565b5b6109c98d828e016108c7565b98505060608b013567ffffffffffffffff8111156109ea576109e96106d6565b5b6109f68d828e016108c7565b97505060808b013567ffffffffffffffff811115610a1757610a166106d6565b5b610a238d828e016108c7565b96505060a08b013567ffffffffffffffff811115610a4457610a436106d6565b5b610a508d828e016108c7565b95505060c08b013567ffffffffffffffff811115610a7157610a706106d6565b5b610a7d8d828e016108c7565b94505060e08b013567ffffffffffffffff811115610a9e57610a9d6106d6565b5b610aaa8d828e016108c7565b935050610100610abc8d828e01610724565b925050610120610ace8d828e0161090c565b9150509295989b9194979a5092959850565b7f4e487b7100000000000000000000000000000000000000000000000000000000600052601160045260246000fd5b6000819050919050565b6000610b2482610b0f565b91507fffffffffffffffffffffffffffffffffffffffffffffffffffffffffffffffff821415610b5757610b56610ae0565b5b600182019050919050565b6000610b6d82610b0f565b91506000821415610b8157610b80610ae0565b5b600182039050919050565b7f4e487b7100000000000000000000000000000000000000000000000000000000600052602260045260246000fd5b60006002820490506001821680610bd357607f821691505b60208210811415610be757610be6610b8c565b5b5091905056fea26469706673582212206ed7e88d7cd8d149a525cf2c828afafcf351d32240192b4876c6049d32dcd4ef64736f6c634300080a0033",
  "immutableReferences": {},
  "source": "// SPDX-License-Identifier: MIT\npragma solidity >=0.4.22 <0.9.0;\n\ncontract Donor {\n    constructor() {}\n\n    // Donors[] allDonors;\n    mapping(address => Donors) allDonors;\n    mapping(address => mapping(address => bool)) consentsProvided;\n    mapping(address => address) validDonors;\n    uint donorsCount = 0;\n    uint validDonorsCount = 0;\n\n    struct Donors {\n        string name;\n        string tempAddress;\n        string permAddress;\n        string phoneNo;\n        string age;\n        string sex;\n        string bloodGroup;\n        string donatingOrgans;\n        address donorAddress;\n        bool isValidDonor;\n    }\n\n    function createDonor(\n        string memory _name,\n        string memory _tempAddr,\n        string memory _permAddr,\n        string memory _phoneNo,\n        string memory _age,\n        string memory _sex,\n        string memory _bloodGroup,\n        string memory _organs,\n        address _donorAddress,\n        bool _isValidDonor\n    ) public {\n\n      donorsCount ++;\n\n      allDonors[_donorAddress] = \n            Donors(\n                _name,\n                _tempAddr,\n                _permAddr,\n                _phoneNo,\n                _age,\n                _sex,\n                _bloodGroup,\n                _organs,\n                _donorAddress,\n                _isValidDonor\n            );\n    }\n\n\n    /**\n    @dev - consent provided for donating to patient\n     */\n    function provideConsentForDonation(address _donorAddress, address _patientAddress) public {\n        consentsProvided[_donorAddress][_patientAddress] = true;\n    }\n\n\n    /**\n    @dev - check if consent is available for the patient address\n     */\n    function checkForConsent(address _donorAddress, address _patientAddress) public view returns(bool _consented) {\n        _consented = consentsProvided[_donorAddress][_patientAddress];\n    }\n\n    function setDonorAsValid(address _donorAddr,address _approvedBy) public {\n        allDonors[_donorAddr].isValidDonor = true;\n        validDonors[_donorAddr] = _approvedBy;\n        validDonorsCount ++;\n    }\n\n    /**\n    @dev - set donor as invalid and adress of the one setting it.\n     */\n    function setDonorAsInValid(address _donorAddr,address _approvedBy) public {\n        allDonors[_donorAddr].isValidDonor = false;\n        validDonors[_donorAddr] = _approvedBy;\n        validDonorsCount --;\n    }\n}\n",
  "sourcePath": "D:\\OrganDonationBlockchain\\contracts\\Donor.sol",
  "compiler": {
    "name": "solc",
    "version": "0.8.10+commit.fc410830.Emscripten.clang"
  },
  "schemaVersion": "3.4.4",
  "updatedAt": "2022-01-17T17:04:31.974Z",
  "networkType": "ethereum",
  "devdoc": {
    "kind": "dev",
    "methods": {
      "checkForConsent(address,address)": {
        "details": "- check if consent is available for the patient address"
      },
      "provideConsentForDonation(address,address)": {
        "details": "- consent provided for donating to patient"
      },
      "setDonorAsInValid(address,address)": {
        "details": "- set donor as invalid and adress of the one setting it."
      }
    },
    "version": 1
  },
  "userdoc": {
    "kind": "user",
    "methods": {},
    "version": 1
  }
}