{
  "contractName": "Donor",
  "abi": [
    {
      "inputs": [],
      "stateMutability": "nonpayable",
      "type": "constructor"
    },
    {
      "inputs": [
        {
          "internalType": "string",
          "name": "_name",
          "type": "string"
        },
        {
          "internalType": "string",
          "name": "_tempAddr",
          "type": "string"
        },
        {
          "internalType": "string",
          "name": "_permAddr",
          "type": "string"
        },
        {
          "internalType": "string",
          "name": "_phoneNo",
          "type": "string"
        },
        {
          "internalType": "string",
          "name": "_age",
          "type": "string"
        },
        {
          "internalType": "string",
          "name": "_sex",
          "type": "string"
        },
        {
          "internalType": "string",
          "name": "_bloodGroup",
          "type": "string"
        },
        {
          "internalType": "string",
          "name": "_organs",
          "type": "string"
        },
        {
          "internalType": "address",
          "name": "_donorAddress",
          "type": "address"
        },
        {
          "internalType": "bool",
          "name": "_isConsentGiven",
          "type": "bool"
        }
      ],
      "name": "createDonor",
      "outputs": [],
      "stateMutability": "nonpayable",
      "type": "function"
    }
  ],
  "bytecode": "0x6080604052600060015534801561001557600080fd5b506107cb806100256000396000f3fe608060405234801561001057600080fd5b506004361061002b5760003560e01c80638e5f8c1014610030575b600080fd5b61004a600480360381019061004591906104f3565b61004c565b005b6001600081548092919061005f906106eb565b91905055506040518061014001604052808b81526020018a81526020018981526020018881526020018781526020018681526020018581526020018481526020018373ffffffffffffffffffffffffffffffffffffffff1681526020018215158152506000808473ffffffffffffffffffffffffffffffffffffffff1673ffffffffffffffffffffffffffffffffffffffff168152602001908152602001600020600082015181600001908051906020019061011c929190610260565b506020820151816001019080519060200190610139929190610260565b506040820151816002019080519060200190610156929190610260565b506060820151816003019080519060200190610173929190610260565b506080820151816004019080519060200190610190929190610260565b5060a08201518160050190805190602001906101ad929190610260565b5060c08201518160060190805190602001906101ca929190610260565b5060e08201518160070190805190602001906101e7929190610260565b506101008201518160080160006101000a81548173ffffffffffffffffffffffffffffffffffffffff021916908373ffffffffffffffffffffffffffffffffffffffff1602179055506101208201518160080160146101000a81548160ff02191690831515021790555090505050505050505050505050565b82805461026c90610763565b90600052602060002090601f01602090048101928261028e57600085556102d5565b82601f106102a757805160ff19168380011785556102d5565b828001600101855582156102d5579182015b828111156102d45782518255916020019190600101906102b9565b5b5090506102e291906102e6565b5090565b5b808211156102ff5760008160009055506001016102e7565b5090565b6000604051905090565b600080fd5b600080fd5b600080fd5b600080fd5b6000601f19601f8301169050919050565b7f4e487b7100000000000000000000000000000000000000000000000000000000600052604160045260246000fd5b61036a82610321565b810181811067ffffffffffffffff8211171561038957610388610332565b5b80604052505050565b600061039c610303565b90506103a88282610361565b919050565b600067ffffffffffffffff8211156103c8576103c7610332565b5b6103d182610321565b9050602081019050919050565b82818337600083830152505050565b60006104006103fb846103ad565b610392565b90508281526020810184848401111561041c5761041b61031c565b5b6104278482856103de565b509392505050565b600082601f83011261044457610443610317565b5b81356104548482602086016103ed565b91505092915050565b600073ffffffffffffffffffffffffffffffffffffffff82169050919050565b60006104888261045d565b9050919050565b6104988161047d565b81146104a357600080fd5b50565b6000813590506104b58161048f565b92915050565b60008115159050919050565b6104d0816104bb565b81146104db57600080fd5b50565b6000813590506104ed816104c7565b92915050565b6000806000806000806000806000806101408b8d0312156105175761051661030d565b5b60008b013567ffffffffffffffff81111561053557610534610312565b5b6105418d828e0161042f565b9a505060208b013567ffffffffffffffff81111561056257610561610312565b5b61056e8d828e0161042f565b99505060408b013567ffffffffffffffff81111561058f5761058e610312565b5b61059b8d828e0161042f565b98505060608b013567ffffffffffffffff8111156105bc576105bb610312565b5b6105c88d828e0161042f565b97505060808b013567ffffffffffffffff8111156105e9576105e8610312565b5b6105f58d828e0161042f565b96505060a08b013567ffffffffffffffff81111561061657610615610312565b5b6106228d828e0161042f565b95505060c08b013567ffffffffffffffff81111561064357610642610312565b5b61064f8d828e0161042f565b94505060e08b013567ffffffffffffffff8111156106705761066f610312565b5b61067c8d828e0161042f565b93505061010061068e8d828e016104a6565b9250506101206106a08d828e016104de565b9150509295989b9194979a5092959850565b7f4e487b7100000000000000000000000000000000000000000000000000000000600052601160045260246000fd5b6000819050919050565b60006106f6826106e1565b91507fffffffffffffffffffffffffffffffffffffffffffffffffffffffffffffffff821415610729576107286106b2565b5b600182019050919050565b7f4e487b7100000000000000000000000000000000000000000000000000000000600052602260045260246000fd5b6000600282049050600182168061077b57607f821691505b6020821081141561078f5761078e610734565b5b5091905056fea26469706673582212207a419171d108c4fa8c95fc84c45d3be81a9bd1da63bfc265cda38f5710199a1764736f6c634300080a0033",
  "immutableReferences": {},
  "source": "// SPDX-License-Identifier: MIT\npragma solidity >=0.4.22 <0.9.0;\n\ncontract Donor {\n    constructor() {}\n\n    // Donors[] allDonors;\n    mapping(address => Donors) allDonors;\n    uint donorsCount = 0;\n\n    struct Donors {\n        string name;\n        string tempAddress;\n        string permAddress;\n        string phoneNo;\n        string age;\n        string sex;\n        string bloodGroup;\n        string donatingOrgans;\n        address donorAddress;\n        bool isConsentGiven;\n    }\n\n    // struct Organs{\n    //   string name;\n    // }\n\n    function createDonor(\n        string memory _name,\n        string memory _tempAddr,\n        string memory _permAddr,\n        string memory _phoneNo,\n        string memory _age,\n        string memory _sex,\n        string memory _bloodGroup,\n        string memory _organs,\n        address _donorAddress,\n        bool _isConsentGiven\n    ) public {\n\n      donorsCount ++;\n\n      allDonors[_donorAddress] = \n            Donors(\n                _name,\n                _tempAddr,\n                _permAddr,\n                _phoneNo,\n                _age,\n                _sex,\n                _bloodGroup,\n                _organs,\n                _donorAddress,\n                _isConsentGiven\n            );\n    }\n}\n",
  "sourcePath": "D:\\OrganDonationBlockchain\\contracts\\Donor.sol",
  "compiler": {
    "name": "solc",
    "version": "0.8.10+commit.fc410830.Emscripten.clang"
  },
  "schemaVersion": "3.4.4",
  "updatedAt": "2022-01-10T13:25:18.326Z",
  "devdoc": {
    "kind": "dev",
    "methods": {},
    "version": 1
  },
  "userdoc": {
    "kind": "user",
    "methods": {},
    "version": 1
  }
}