{
  "contractName": "Patient",
  "abi": [
    {
      "inputs": [],
      "stateMutability": "nonpayable",
      "type": "constructor"
    },
    {
      "inputs": [
        {
          "internalType": "address",
          "name": "",
          "type": "address"
        }
      ],
      "name": "allPatients",
      "outputs": [
        {
          "internalType": "string",
          "name": "name",
          "type": "string"
        },
        {
          "internalType": "string",
          "name": "permanentAddress",
          "type": "string"
        },
        {
          "internalType": "string",
          "name": "temporaryAddress",
          "type": "string"
        },
        {
          "internalType": "string",
          "name": "phoneNumber",
          "type": "string"
        },
        {
          "internalType": "string",
          "name": "age",
          "type": "string"
        },
        {
          "internalType": "string",
          "name": "sex",
          "type": "string"
        },
        {
          "internalType": "string",
          "name": "bloodGroup",
          "type": "string"
        },
        {
          "internalType": "address",
          "name": "createdBy",
          "type": "address"
        }
      ],
      "stateMutability": "view",
      "type": "function"
    },
    {
      "inputs": [
        {
          "internalType": "string",
          "name": "_name",
          "type": "string"
        },
        {
          "internalType": "string",
          "name": "_permAddr",
          "type": "string"
        },
        {
          "internalType": "string",
          "name": "_tempAddr",
          "type": "string"
        },
        {
          "internalType": "string",
          "name": "_phoneNo",
          "type": "string"
        },
        {
          "internalType": "string",
          "name": "_age",
          "type": "string"
        },
        {
          "internalType": "string",
          "name": "_sex",
          "type": "string"
        },
        {
          "internalType": "string",
          "name": "_bloodGroup",
          "type": "string"
        },
        {
          "internalType": "address",
          "name": "_patientWalletAddr",
          "type": "address"
        },
        {
          "internalType": "address",
          "name": "_createdBy",
          "type": "address"
        }
      ],
      "name": "createPatient",
      "outputs": [],
      "stateMutability": "nonpayable",
      "type": "function"
    },
    {
      "inputs": [
        {
          "internalType": "address",
          "name": "_patientAddress",
          "type": "address"
        },
        {
          "internalType": "address",
          "name": "_donorAddress",
          "type": "address"
        }
      ],
      "name": "provideConsentForTransplant",
      "outputs": [],
      "stateMutability": "nonpayable",
      "type": "function"
    },
    {
      "inputs": [
        {
          "internalType": "address",
          "name": "patient",
          "type": "address"
        },
        {
          "internalType": "address",
          "name": "doctor",
          "type": "address"
        }
      ],
      "name": "giveConsentToViewRecords",
      "outputs": [],
      "stateMutability": "nonpayable",
      "type": "function"
    }
  ],
  "bytecode": "0x608060405234801561001057600080fd5b50610eaf806100206000396000f3fe608060405234801561001057600080fd5b506004361061004c5760003560e01c8063a2fdbb5214610051578063cd25d7be1461006d578063cdcb1e1a146100a4578063e1c599de146100c0575b600080fd5b61006b60048036038101906100669190610968565b6100dc565b005b610087600480360381019061008291906109a8565b61016f565b60405161009b989796959493929190610a7d565b60405180910390f35b6100be60048036038101906100b99190610968565b61058f565b005b6100da60048036038101906100d59190610c61565b6106a5565b005b600360009054906101000a900473ffffffffffffffffffffffffffffffffffffffff1673ffffffffffffffffffffffffffffffffffffffff166382a7b87f83836040518363ffffffff1660e01b8152600401610139929190610def565b600060405180830381600087803b15801561015357600080fd5b505af1158015610167573d6000803e3d6000fd5b505050505050565b600060205280600052604060002060009150905080600001805461019290610e47565b80601f01602080910402602001604051908101604052809291908181526020018280546101be90610e47565b801561020b5780601f106101e05761010080835404028352916020019161020b565b820191906000526020600020905b8154815290600101906020018083116101ee57829003601f168201915b50505050509080600101805461022090610e47565b80601f016020809104026020016040519081016040528092919081815260200182805461024c90610e47565b80156102995780601f1061026e57610100808354040283529160200191610299565b820191906000526020600020905b81548152906001019060200180831161027c57829003601f168201915b5050505050908060020180546102ae90610e47565b80601f01602080910402602001604051908101604052809291908181526020018280546102da90610e47565b80156103275780601f106102fc57610100808354040283529160200191610327565b820191906000526020600020905b81548152906001019060200180831161030a57829003601f168201915b50505050509080600301805461033c90610e47565b80601f016020809104026020016040519081016040528092919081815260200182805461036890610e47565b80156103b55780601f1061038a576101008083540402835291602001916103b5565b820191906000526020600020905b81548152906001019060200180831161039857829003601f168201915b5050505050908060040180546103ca90610e47565b80601f01602080910402602001604051908101604052809291908181526020018280546103f690610e47565b80156104435780601f1061041857610100808354040283529160200191610443565b820191906000526020600020905b81548152906001019060200180831161042657829003601f168201915b50505050509080600501805461045890610e47565b80601f016020809104026020016040519081016040528092919081815260200182805461048490610e47565b80156104d15780601f106104a6576101008083540402835291602001916104d1565b820191906000526020600020905b8154815290600101906020018083116104b457829003601f168201915b5050505050908060060180546104e690610e47565b80601f016020809104026020016040519081016040528092919081815260200182805461051290610e47565b801561055f5780601f106105345761010080835404028352916020019161055f565b820191906000526020600020905b81548152906001019060200180831161054257829003601f168201915b5050505050908060070160009054906101000a900473ffffffffffffffffffffffffffffffffffffffff16905088565b60018060008473ffffffffffffffffffffffffffffffffffffffff1673ffffffffffffffffffffffffffffffffffffffff16815260200190815260200160002060008373ffffffffffffffffffffffffffffffffffffffff1673ffffffffffffffffffffffffffffffffffffffff16815260200190815260200160002060006101000a81548160ff02191690831515021790555080600260008473ffffffffffffffffffffffffffffffffffffffff1673ffffffffffffffffffffffffffffffffffffffff16815260200190815260200160002060006101000a81548173ffffffffffffffffffffffffffffffffffffffff021916908373ffffffffffffffffffffffffffffffffffffffff1602179055505050565b6040518061010001604052808a81526020018981526020018881526020018781526020018681526020018581526020018481526020018273ffffffffffffffffffffffffffffffffffffffff168152506000808473ffffffffffffffffffffffffffffffffffffffff1673ffffffffffffffffffffffffffffffffffffffff168152602001908152602001600020600082015181600001908051906020019061074f929190610853565b50602082015181600101908051906020019061076c929190610853565b506040820151816002019080519060200190610789929190610853565b5060608201518160030190805190602001906107a6929190610853565b5060808201518160040190805190602001906107c3929190610853565b5060a08201518160050190805190602001906107e0929190610853565b5060c08201518160060190805190602001906107fd929190610853565b5060e08201518160070160006101000a81548173ffffffffffffffffffffffffffffffffffffffff021916908373ffffffffffffffffffffffffffffffffffffffff160217905550905050505050505050505050565b82805461085f90610e47565b90600052602060002090601f01602090048101928261088157600085556108c8565b82601f1061089a57805160ff19168380011785556108c8565b828001600101855582156108c8579182015b828111156108c75782518255916020019190600101906108ac565b5b5090506108d591906108d9565b5090565b5b808211156108f25760008160009055506001016108da565b5090565b6000604051905090565b600080fd5b600080fd5b600073ffffffffffffffffffffffffffffffffffffffff82169050919050565b60006109358261090a565b9050919050565b6109458161092a565b811461095057600080fd5b50565b6000813590506109628161093c565b92915050565b6000806040838503121561097f5761097e610900565b5b600061098d85828601610953565b925050602061099e85828601610953565b9150509250929050565b6000602082840312156109be576109bd610900565b5b60006109cc84828501610953565b91505092915050565b600081519050919050565b600082825260208201905092915050565b60005b83811015610a0f5780820151818401526020810190506109f4565b83811115610a1e576000848401525b50505050565b6000601f19601f8301169050919050565b6000610a40826109d5565b610a4a81856109e0565b9350610a5a8185602086016109f1565b610a6381610a24565b840191505092915050565b610a778161092a565b82525050565b6000610100820190508181036000830152610a98818b610a35565b90508181036020830152610aac818a610a35565b90508181036040830152610ac08189610a35565b90508181036060830152610ad48188610a35565b90508181036080830152610ae88187610a35565b905081810360a0830152610afc8186610a35565b905081810360c0830152610b108185610a35565b9050610b1f60e0830184610a6e565b9998505050505050505050565b600080fd5b600080fd5b7f4e487b7100000000000000000000000000000000000000000000000000000000600052604160045260246000fd5b610b6e82610a24565b810181811067ffffffffffffffff82111715610b8d57610b8c610b36565b5b80604052505050565b6000610ba06108f6565b9050610bac8282610b65565b919050565b600067ffffffffffffffff821115610bcc57610bcb610b36565b5b610bd582610a24565b9050602081019050919050565b82818337600083830152505050565b6000610c04610bff84610bb1565b610b96565b905082815260208101848484011115610c2057610c1f610b31565b5b610c2b848285610be2565b509392505050565b600082601f830112610c4857610c47610b2c565b5b8135610c58848260208601610bf1565b91505092915050565b60008060008060008060008060006101208a8c031215610c8457610c83610900565b5b60008a013567ffffffffffffffff811115610ca257610ca1610905565b5b610cae8c828d01610c33565b99505060208a013567ffffffffffffffff811115610ccf57610cce610905565b5b610cdb8c828d01610c33565b98505060408a013567ffffffffffffffff811115610cfc57610cfb610905565b5b610d088c828d01610c33565b97505060608a013567ffffffffffffffff811115610d2957610d28610905565b5b610d358c828d01610c33565b96505060808a013567ffffffffffffffff811115610d5657610d55610905565b5b610d628c828d01610c33565b95505060a08a013567ffffffffffffffff811115610d8357610d82610905565b5b610d8f8c828d01610c33565b94505060c08a013567ffffffffffffffff811115610db057610daf610905565b5b610dbc8c828d01610c33565b93505060e0610dcd8c828d01610953565b925050610100610ddf8c828d01610953565b9150509295985092959850929598565b6000604082019050610e046000830185610a6e565b610e116020830184610a6e565b9392505050565b7f4e487b7100000000000000000000000000000000000000000000000000000000600052602260045260246000fd5b60006002820490506001821680610e5f57607f821691505b60208210811415610e7357610e72610e18565b5b5091905056fea2646970667358221220e4ef5554931387b8a5446b50f43859a6c32a647c234e337e81807c8e415a891a64736f6c634300080a0033",
  "immutableReferences": {},
  "source": "// SPDX-License-Identifier: MIT\r\npragma solidity >=0.4.22 <0.9.0;\r\nimport \"./Admin.sol\";\r\nimport \"./Doctor.sol\";\r\n\r\ncontract Patient {\r\n    constructor() {}\r\n\r\n    // Admin admin;\r\n    // Patients[] allPatients;\r\n\r\n    // struct Patients {\r\n    //     string name;\r\n    //     string permanentAddress;\r\n    //     string temporaryAddress;\r\n    //     string phoneNumber;\r\n    //     string age;\r\n    //     string sex;\r\n    //     string bloodGroup;\r\n    //     address patientWalletAddress;\r\n    // }\r\n\r\n    // function registerPatient(\r\n    //     string memory _name,\r\n    //     string memory _perAddr,\r\n    //     string memory _tempAddr,\r\n    //     string memory _phoneNo,\r\n    //     string memory _age,\r\n    //     string memory _sex,\r\n    //     string memory _bloodGroup,\r\n    //     address _patientwalletAddr\r\n    // ) public {\r\n    //     require(msg.sender == admin.HOSPITAL_ADMIN());\r\n    //     allPatients.push(\r\n    //         Patients(\r\n    //             _name,\r\n    //             _perAddr,\r\n    //             _tempAddr,\r\n    //             _phoneNo,\r\n    //             _age,\r\n    //             _sex,\r\n    //             _bloodGroup,\r\n    //             _patientwalletAddr\r\n    //         )\r\n    //     );\r\n    // }\r\n\r\n    mapping(address => Patients) public allPatients;\r\n    mapping(address => mapping(address => bool)) consentsGiven;\r\n    mapping(address => address) validPatients;\r\n    Doctor doc;\r\n\r\n    struct Patients {\r\n        string name;\r\n        string permanentAddress;\r\n        string temporaryAddress;\r\n        string phoneNumber;\r\n        string age;\r\n        string sex;\r\n        string bloodGroup;\r\n        address createdBy;\r\n    }\r\n\r\n    function createPatient(\r\n        string memory _name,\r\n        string memory _permAddr,\r\n        string memory _tempAddr,\r\n        string memory _phoneNo,\r\n        string memory _age,\r\n        string memory _sex,\r\n        string memory _bloodGroup,\r\n        address _patientWalletAddr,\r\n        address _createdBy\r\n    ) public {\r\n        allPatients[_patientWalletAddr] = Patients(\r\n            _name,\r\n            _permAddr,\r\n            _tempAddr,\r\n            _phoneNo,\r\n            _age,\r\n            _sex,\r\n            _bloodGroup,\r\n            _createdBy\r\n        );\r\n    }\r\n\r\n    /**\r\n    @dev - All patients who have given consent. address of the donor is stored to check for whom the consent is given\r\n     */\r\n    function provideConsentForTransplant(\r\n        address _patientAddress,\r\n        address _donorAddress\r\n    ) public {\r\n        consentsGiven[_patientAddress][_donorAddress] = true;\r\n        validPatients[_patientAddress] = _donorAddress;\r\n    }\r\n\r\n    function giveConsentToViewRecords(address patient, address doctor) public {\r\n        doc.givepermissionToViewRecord(patient, doctor);\r\n    }\r\n}\r\n",
  "sourcePath": "D:\\OrganDonationBlockchain\\contracts\\Patient.sol",
  "compiler": {
    "name": "solc",
    "version": "0.8.10+commit.fc410830.Emscripten.clang"
  },
  "schemaVersion": "3.4.4",
  "updatedAt": "2022-01-19T07:52:02.782Z",
  "devdoc": {
    "kind": "dev",
    "methods": {
      "provideConsentForTransplant(address,address)": {
        "details": "- All patients who have given consent. address of the donor is stored to check for whom the consent is given"
      }
    },
    "version": 1
  },
  "userdoc": {
    "kind": "user",
    "methods": {},
    "version": 1
  }
}