{
  "contractName": "Patient",
  "abi": [
    {
      "inputs": [],
      "stateMutability": "nonpayable",
      "type": "constructor"
    },
    {
      "inputs": [
        {
          "internalType": "string",
          "name": "_name",
          "type": "string"
        },
        {
          "internalType": "string",
          "name": "_permAddr",
          "type": "string"
        },
        {
          "internalType": "string",
          "name": "_tempAddr",
          "type": "string"
        },
        {
          "internalType": "string",
          "name": "_phoneNo",
          "type": "string"
        },
        {
          "internalType": "string",
          "name": "_age",
          "type": "string"
        },
        {
          "internalType": "string",
          "name": "_sex",
          "type": "string"
        },
        {
          "internalType": "string",
          "name": "_bloodGroup",
          "type": "string"
        },
        {
          "internalType": "address",
          "name": "_patientWalletAddr",
          "type": "address"
        },
        {
          "internalType": "address",
          "name": "_createdBy",
          "type": "address"
        }
      ],
      "name": "createPatient",
      "outputs": [],
      "stateMutability": "nonpayable",
      "type": "function"
    },
    {
      "inputs": [
        {
          "internalType": "address",
          "name": "_patientAddr",
          "type": "address"
        },
        {
          "internalType": "address",
          "name": "_docAddr",
          "type": "address"
        }
      ],
      "name": "givePermissionToDoctor",
      "outputs": [],
      "stateMutability": "nonpayable",
      "type": "function"
    },
    {
      "inputs": [
        {
          "internalType": "address",
          "name": "_patientAddress",
          "type": "address"
        },
        {
          "internalType": "address",
          "name": "_doctorAddress",
          "type": "address"
        }
      ],
      "name": "hasPermissionToViewRecord",
      "outputs": [
        {
          "internalType": "bool",
          "name": "_hasPermission",
          "type": "bool"
        }
      ],
      "stateMutability": "view",
      "type": "function",
      "constant": true
    }
  ],
  "bytecode": "0x608060405234801561001057600080fd5b5061087e806100206000396000f3fe608060405234801561001057600080fd5b50600436106100415760003560e01c80632342c4be146100465780633196a21a14610076578063e1c599de14610092575b600080fd5b610060600480360381019061005b919061049d565b6100ae565b60405161006d91906104f8565b60405180910390f35b610090600480360381019061008b919061049d565b610142565b005b6100ac60048036038101906100a79190610659565b6101da565b005b6000600160008473ffffffffffffffffffffffffffffffffffffffff1673ffffffffffffffffffffffffffffffffffffffff16815260200190815260200160002060008373ffffffffffffffffffffffffffffffffffffffff1673ffffffffffffffffffffffffffffffffffffffff16815260200190815260200160002060009054906101000a900460ff16905092915050565b60018060008473ffffffffffffffffffffffffffffffffffffffff1673ffffffffffffffffffffffffffffffffffffffff16815260200190815260200160002060008373ffffffffffffffffffffffffffffffffffffffff1673ffffffffffffffffffffffffffffffffffffffff16815260200190815260200160002060006101000a81548160ff0219169083151502179055505050565b6040518061010001604052808a81526020018981526020018881526020018781526020018681526020018581526020018481526020018273ffffffffffffffffffffffffffffffffffffffff168152506000808473ffffffffffffffffffffffffffffffffffffffff1673ffffffffffffffffffffffffffffffffffffffff1681526020019081526020016000206000820151816000019080519060200190610284929190610388565b5060208201518160010190805190602001906102a1929190610388565b5060408201518160020190805190602001906102be929190610388565b5060608201518160030190805190602001906102db929190610388565b5060808201518160040190805190602001906102f8929190610388565b5060a0820151816005019080519060200190610315929190610388565b5060c0820151816006019080519060200190610332929190610388565b5060e08201518160070160006101000a81548173ffffffffffffffffffffffffffffffffffffffff021916908373ffffffffffffffffffffffffffffffffffffffff160217905550905050505050505050505050565b82805461039490610816565b90600052602060002090601f0160209004810192826103b657600085556103fd565b82601f106103cf57805160ff19168380011785556103fd565b828001600101855582156103fd579182015b828111156103fc5782518255916020019190600101906103e1565b5b50905061040a919061040e565b5090565b5b8082111561042757600081600090555060010161040f565b5090565b6000604051905090565b600080fd5b600080fd5b600073ffffffffffffffffffffffffffffffffffffffff82169050919050565b600061046a8261043f565b9050919050565b61047a8161045f565b811461048557600080fd5b50565b60008135905061049781610471565b92915050565b600080604083850312156104b4576104b3610435565b5b60006104c285828601610488565b92505060206104d385828601610488565b9150509250929050565b60008115159050919050565b6104f2816104dd565b82525050565b600060208201905061050d60008301846104e9565b92915050565b600080fd5b600080fd5b6000601f19601f8301169050919050565b7f4e487b7100000000000000000000000000000000000000000000000000000000600052604160045260246000fd5b6105668261051d565b810181811067ffffffffffffffff821117156105855761058461052e565b5b80604052505050565b600061059861042b565b90506105a4828261055d565b919050565b600067ffffffffffffffff8211156105c4576105c361052e565b5b6105cd8261051d565b9050602081019050919050565b82818337600083830152505050565b60006105fc6105f7846105a9565b61058e565b90508281526020810184848401111561061857610617610518565b5b6106238482856105da565b509392505050565b600082601f8301126106405761063f610513565b5b81356106508482602086016105e9565b91505092915050565b60008060008060008060008060006101208a8c03121561067c5761067b610435565b5b60008a013567ffffffffffffffff81111561069a5761069961043a565b5b6106a68c828d0161062b565b99505060208a013567ffffffffffffffff8111156106c7576106c661043a565b5b6106d38c828d0161062b565b98505060408a013567ffffffffffffffff8111156106f4576106f361043a565b5b6107008c828d0161062b565b97505060608a013567ffffffffffffffff8111156107215761072061043a565b5b61072d8c828d0161062b565b96505060808a013567ffffffffffffffff81111561074e5761074d61043a565b5b61075a8c828d0161062b565b95505060a08a013567ffffffffffffffff81111561077b5761077a61043a565b5b6107878c828d0161062b565b94505060c08a013567ffffffffffffffff8111156107a8576107a761043a565b5b6107b48c828d0161062b565b93505060e06107c58c828d01610488565b9250506101006107d78c828d01610488565b9150509295985092959850929598565b7f4e487b7100000000000000000000000000000000000000000000000000000000600052602260045260246000fd5b6000600282049050600182168061082e57607f821691505b60208210811415610842576108416107e7565b5b5091905056fea2646970667358221220d975854a86b15b2eba1af47a145c54ad0a84354e85bd58b1fab298949cc33e4164736f6c634300080a0033",
  "immutableReferences": {},
  "source": "// SPDX-License-Identifier: MIT\npragma solidity >=0.4.22 <0.9.0;\nimport \"./Admin.sol\";\nimport \"./Doctor.sol\";\n\ncontract Patient {\n    constructor() {}\n\n    // Admin admin;\n    // Patients[] allPatients;\n\n    // struct Patients {\n    //     string name;\n    //     string permanentAddress;\n    //     string temporaryAddress;\n    //     string phoneNumber;\n    //     string age;\n    //     string sex;\n    //     string bloodGroup;\n    //     address patientWalletAddress;\n    // }\n\n    // function registerPatient(\n    //     string memory _name,\n    //     string memory _perAddr,\n    //     string memory _tempAddr,\n    //     string memory _phoneNo,\n    //     string memory _age,\n    //     string memory _sex,\n    //     string memory _bloodGroup,\n    //     address _patientwalletAddr\n    // ) public {\n    //     require(msg.sender == admin.HOSPITAL_ADMIN());\n    //     allPatients.push(\n    //         Patients(\n    //             _name,\n    //             _perAddr,\n    //             _tempAddr,\n    //             _phoneNo,\n    //             _age,\n    //             _sex,\n    //             _bloodGroup,\n    //             _patientwalletAddr\n    //         )\n    //     );\n    // }\n\n    mapping(address => Patients) allPatients;\n    mapping(address => mapping(address => bool)) permittedDoctors;\n    struct Patients {\n        string name;\n        string permanentAddress;\n        string temporaryAddress;\n        string phoneNumber;\n        string age;\n        string sex;\n        string bloodGroup;\n        address createdBy;\n    }\n\n    function createPatient(\n        string memory _name,\n        string memory _permAddr,\n        string memory _tempAddr,\n        string memory _phoneNo,\n        string memory _age,\n        string memory _sex,\n        string memory _bloodGroup,\n        address _patientWalletAddr,\n        address _createdBy\n    ) public {\n        allPatients[_patientWalletAddr] = Patients(\n            _name,\n            _permAddr,\n            _tempAddr,\n            _phoneNo,\n            _age,\n            _sex,\n            _bloodGroup,\n            _createdBy\n        );\n    }\n\n    function givePermissionToDoctor(address _patientAddr, address _docAddr)\n        public\n    {\n        permittedDoctors[_patientAddr][_docAddr] = true;\n    }\n\n    function hasPermissionToViewRecord(\n        address _patientAddress,\n        address _doctorAddress\n    ) public view returns (bool _hasPermission) {\n        _hasPermission = permittedDoctors[_patientAddress][_doctorAddress];\n    }\n}\n",
  "sourcePath": "d:\\OrganDonationBlockchain\\contracts\\Patient.sol",
  "compiler": {
    "name": "solc",
    "version": "0.8.10+commit.fc410830.Emscripten.clang"
  },
  "schemaVersion": "3.4.4",
  "updatedAt": "2022-01-13T10:35:45.923Z",
  "networkType": "ethereum",
  "devdoc": {
    "kind": "dev",
    "methods": {},
    "version": 1
  },
  "userdoc": {
    "kind": "user",
    "methods": {},
    "version": 1
  }
}