{
  "contractName": "Patient",
  "abi": [
    {
      "inputs": [],
      "stateMutability": "nonpayable",
      "type": "constructor"
    },
    {
      "inputs": [
        {
          "internalType": "string",
          "name": "_name",
          "type": "string"
        },
        {
          "internalType": "string",
          "name": "_permAddr",
          "type": "string"
        },
        {
          "internalType": "string",
          "name": "_tempAddr",
          "type": "string"
        },
        {
          "internalType": "string",
          "name": "_phoneNo",
          "type": "string"
        },
        {
          "internalType": "string",
          "name": "_age",
          "type": "string"
        },
        {
          "internalType": "string",
          "name": "_sex",
          "type": "string"
        },
        {
          "internalType": "string",
          "name": "_bloodGroup",
          "type": "string"
        },
        {
          "internalType": "address",
          "name": "_patientWalletAddr",
          "type": "address"
        },
        {
          "internalType": "address",
          "name": "_createdBy",
          "type": "address"
        }
      ],
      "name": "createPatient",
      "outputs": [],
      "stateMutability": "nonpayable",
      "type": "function"
    }
  ],
  "bytecode": "0x608060405234801561001057600080fd5b5061067a806100206000396000f3fe608060405234801561001057600080fd5b506004361061002b5760003560e01c8063e1c599de14610030575b600080fd5b61004a60048036038101906100459190610455565b61004c565b005b6040518061010001604052808a81526020018981526020018881526020018781526020018681526020018581526020018481526020018273ffffffffffffffffffffffffffffffffffffffff168152506000808473ffffffffffffffffffffffffffffffffffffffff1673ffffffffffffffffffffffffffffffffffffffff16815260200190815260200160002060008201518160000190805190602001906100f69291906101fa565b5060208201518160010190805190602001906101139291906101fa565b5060408201518160020190805190602001906101309291906101fa565b50606082015181600301908051906020019061014d9291906101fa565b50608082015181600401908051906020019061016a9291906101fa565b5060a08201518160050190805190602001906101879291906101fa565b5060c08201518160060190805190602001906101a49291906101fa565b5060e08201518160070160006101000a81548173ffffffffffffffffffffffffffffffffffffffff021916908373ffffffffffffffffffffffffffffffffffffffff160217905550905050505050505050505050565b82805461020690610612565b90600052602060002090601f016020900481019282610228576000855561026f565b82601f1061024157805160ff191683800117855561026f565b8280016001018555821561026f579182015b8281111561026e578251825591602001919060010190610253565b5b50905061027c9190610280565b5090565b5b80821115610299576000816000905550600101610281565b5090565b6000604051905090565b600080fd5b600080fd5b600080fd5b600080fd5b6000601f19601f8301169050919050565b7f4e487b7100000000000000000000000000000000000000000000000000000000600052604160045260246000fd5b610304826102bb565b810181811067ffffffffffffffff82111715610323576103226102cc565b5b80604052505050565b600061033661029d565b905061034282826102fb565b919050565b600067ffffffffffffffff821115610362576103616102cc565b5b61036b826102bb565b9050602081019050919050565b82818337600083830152505050565b600061039a61039584610347565b61032c565b9050828152602081018484840111156103b6576103b56102b6565b5b6103c1848285610378565b509392505050565b600082601f8301126103de576103dd6102b1565b5b81356103ee848260208601610387565b91505092915050565b600073ffffffffffffffffffffffffffffffffffffffff82169050919050565b6000610422826103f7565b9050919050565b61043281610417565b811461043d57600080fd5b50565b60008135905061044f81610429565b92915050565b60008060008060008060008060006101208a8c031215610478576104776102a7565b5b60008a013567ffffffffffffffff811115610496576104956102ac565b5b6104a28c828d016103c9565b99505060208a013567ffffffffffffffff8111156104c3576104c26102ac565b5b6104cf8c828d016103c9565b98505060408a013567ffffffffffffffff8111156104f0576104ef6102ac565b5b6104fc8c828d016103c9565b97505060608a013567ffffffffffffffff81111561051d5761051c6102ac565b5b6105298c828d016103c9565b96505060808a013567ffffffffffffffff81111561054a576105496102ac565b5b6105568c828d016103c9565b95505060a08a013567ffffffffffffffff811115610577576105766102ac565b5b6105838c828d016103c9565b94505060c08a013567ffffffffffffffff8111156105a4576105a36102ac565b5b6105b08c828d016103c9565b93505060e06105c18c828d01610440565b9250506101006105d38c828d01610440565b9150509295985092959850929598565b7f4e487b7100000000000000000000000000000000000000000000000000000000600052602260045260246000fd5b6000600282049050600182168061062a57607f821691505b6020821081141561063e5761063d6105e3565b5b5091905056fea264697066735822122057a550d2e45436dbbceb7300dd77b9ff101c6552a898f34c1409f14b33df946d64736f6c634300080a0033",
  "immutableReferences": {},
  "source": "// SPDX-License-Identifier: MIT\r\npragma solidity >=0.4.22 <0.9.0;\r\nimport \"./Admin.sol\";\r\n\r\ncontract Patient {\r\n    constructor() {}\r\n\r\n    // Admin admin;\r\n    // Patients[] allPatients;\r\n\r\n    // struct Patients {\r\n    //     string name;\r\n    //     string permanentAddress;\r\n    //     string temporaryAddress;\r\n    //     string phoneNumber;\r\n    //     string age;\r\n    //     string sex;\r\n    //     string bloodGroup;\r\n    //     address patientWalletAddress;\r\n    // }\r\n\r\n    // function registerPatient(\r\n    //     string memory _name,\r\n    //     string memory _perAddr,\r\n    //     string memory _tempAddr,\r\n    //     string memory _phoneNo,\r\n    //     string memory _age,\r\n    //     string memory _sex,\r\n    //     string memory _bloodGroup,\r\n    //     address _patientwalletAddr\r\n    // ) public {\r\n    //     require(msg.sender == admin.HOSPITAL_ADMIN());\r\n    //     allPatients.push(\r\n    //         Patients(\r\n    //             _name,\r\n    //             _perAddr,\r\n    //             _tempAddr,\r\n    //             _phoneNo,\r\n    //             _age,\r\n    //             _sex,\r\n    //             _bloodGroup,\r\n    //             _patientwalletAddr\r\n    //         )\r\n    //     );\r\n    // }\r\n\r\n    mapping(address => Patients) allPatients;\r\n    struct Patients {\r\n        string name;\r\n        string permanentAddress;\r\n        string temporaryAddress;\r\n        string phoneNumber;\r\n        string age;\r\n        string sex;\r\n        string bloodGroup;\r\n        address createdBy;\r\n    }\r\n\r\n    function createPatient(\r\n        string memory _name,\r\n        string memory _permAddr,\r\n        string memory _tempAddr,\r\n        string memory _phoneNo,\r\n        string memory _age,\r\n        string memory _sex,\r\n        string memory _bloodGroup,\r\n        address _patientWalletAddr,\r\n        address _createdBy\r\n    ) public {\r\n        allPatients[_patientWalletAddr] = \r\n        Patients(_name,\r\n        _permAddr,\r\n        _tempAddr,\r\n        _phoneNo,\r\n        _age,\r\n        _sex,\r\n        _bloodGroup,\r\n        _createdBy);\r\n    }\r\n\r\n    \r\n}\r\n",
  "sourcePath": "D:\\OrganDonationBlockchain\\contracts\\Patient.sol",
  "compiler": {
    "name": "solc",
    "version": "0.8.10+commit.fc410830.Emscripten.clang"
  },
  "schemaVersion": "3.4.4",
  "updatedAt": "2022-01-17T17:04:32.002Z",
  "networkType": "ethereum",
  "devdoc": {
    "kind": "dev",
    "methods": {},
    "version": 1
  },
  "userdoc": {
    "kind": "user",
    "methods": {},
    "version": 1
  }
}