{
  "contractName": "Record",
  "abi": [
    {
      "inputs": [],
      "stateMutability": "nonpayable",
      "type": "constructor"
    },
    {
      "inputs": [
        {
          "internalType": "address",
          "name": "_patientAddress",
          "type": "address"
        },
        {
          "internalType": "string",
          "name": "_date",
          "type": "string"
        },
        {
          "internalType": "string",
          "name": "_hospitalName",
          "type": "string"
        },
        {
          "internalType": "string",
          "name": "_dignosedWith",
          "type": "string"
        },
        {
          "internalType": "string",
          "name": "_medicationProvided",
          "type": "string"
        },
        {
          "internalType": "address",
          "name": "_diagnosedBy",
          "type": "address"
        }
      ],
      "name": "createRecord",
      "outputs": [],
      "stateMutability": "nonpayable",
      "type": "function"
    },
    {
      "inputs": [
        {
          "internalType": "uint256",
          "name": "id",
          "type": "uint256"
        },
        {
          "internalType": "address",
          "name": "_patientAddress",
          "type": "address"
        }
      ],
      "name": "removeRecord",
      "outputs": [],
      "stateMutability": "nonpayable",
      "type": "function"
    }
  ],
  "bytecode": "0x6080604052600060015534801561001557600080fd5b506107b9806100256000396000f3fe608060405234801561001057600080fd5b50600436106100365760003560e01c806357e2c2f51461003b578063ba46685414610057575b600080fd5b61005560048036038101906100509190610427565b610073565b005b610071600480360381019061006c91906105ad565b610130565b005b6000808273ffffffffffffffffffffffffffffffffffffffff1673ffffffffffffffffffffffffffffffffffffffff1681526020019081526020016000206000838152602001908152602001600020600080820160006100d3919061029c565b6001820160006100e3919061029c565b6002820160006100f3919061029c565b600382016000610103919061029c565b6004820160006101000a81549073ffffffffffffffffffffffffffffffffffffffff021916905550505050565b60016000815480929190610143906106d9565b91905055506040518060a001604052808681526020018581526020018481526020018381526020018273ffffffffffffffffffffffffffffffffffffffff168152506000808873ffffffffffffffffffffffffffffffffffffffff1673ffffffffffffffffffffffffffffffffffffffff1681526020019081526020016000206000600154815260200190815260200160002060008201518160000190805190602001906101f29291906102dc565b50602082015181600101908051906020019061020f9291906102dc565b50604082015181600201908051906020019061022c9291906102dc565b5060608201518160030190805190602001906102499291906102dc565b5060808201518160040160006101000a81548173ffffffffffffffffffffffffffffffffffffffff021916908373ffffffffffffffffffffffffffffffffffffffff160217905550905050505050505050565b5080546102a890610751565b6000825580601f106102ba57506102d9565b601f0160209004906000526020600020908101906102d89190610362565b5b50565b8280546102e890610751565b90600052602060002090601f01602090048101928261030a5760008555610351565b82601f1061032357805160ff1916838001178555610351565b82800160010185558215610351579182015b82811115610350578251825591602001919060010190610335565b5b50905061035e9190610362565b5090565b5b8082111561037b576000816000905550600101610363565b5090565b6000604051905090565b600080fd5b600080fd5b6000819050919050565b6103a681610393565b81146103b157600080fd5b50565b6000813590506103c38161039d565b92915050565b600073ffffffffffffffffffffffffffffffffffffffff82169050919050565b60006103f4826103c9565b9050919050565b610404816103e9565b811461040f57600080fd5b50565b600081359050610421816103fb565b92915050565b6000806040838503121561043e5761043d610389565b5b600061044c858286016103b4565b925050602061045d85828601610412565b9150509250929050565b600080fd5b600080fd5b6000601f19601f8301169050919050565b7f4e487b7100000000000000000000000000000000000000000000000000000000600052604160045260246000fd5b6104ba82610471565b810181811067ffffffffffffffff821117156104d9576104d8610482565b5b80604052505050565b60006104ec61037f565b90506104f882826104b1565b919050565b600067ffffffffffffffff82111561051857610517610482565b5b61052182610471565b9050602081019050919050565b82818337600083830152505050565b600061055061054b846104fd565b6104e2565b90508281526020810184848401111561056c5761056b61046c565b5b61057784828561052e565b509392505050565b600082601f83011261059457610593610467565b5b81356105a484826020860161053d565b91505092915050565b60008060008060008060c087890312156105ca576105c9610389565b5b60006105d889828a01610412565b965050602087013567ffffffffffffffff8111156105f9576105f861038e565b5b61060589828a0161057f565b955050604087013567ffffffffffffffff8111156106265761062561038e565b5b61063289828a0161057f565b945050606087013567ffffffffffffffff8111156106535761065261038e565b5b61065f89828a0161057f565b935050608087013567ffffffffffffffff8111156106805761067f61038e565b5b61068c89828a0161057f565b92505060a061069d89828a01610412565b9150509295509295509295565b7f4e487b7100000000000000000000000000000000000000000000000000000000600052601160045260246000fd5b60006106e482610393565b91507fffffffffffffffffffffffffffffffffffffffffffffffffffffffffffffffff821415610717576107166106aa565b5b600182019050919050565b7f4e487b7100000000000000000000000000000000000000000000000000000000600052602260045260246000fd5b6000600282049050600182168061076957607f821691505b6020821081141561077d5761077c610722565b5b5091905056fea2646970667358221220743585929ee9cd2896e043c9942e2a45ca8b815a38c6e1e7b6a99be5349a334464736f6c634300080a0033",
  "immutableReferences": {},
  "source": "// SPDX-License-Identifier: MIT\npragma solidity >=0.4.22 <0.9.0;\n\ncontract Record {\n    constructor() {}\n\n//     struct Records {\n//         Entry[] diagnosedEntries;\n//     }\n\n//     struct Entry {\n//         string date;\n//         string hospitalName;\n//         string diagnosedWith;\n//         string medicationsProvided;\n//         address diagnosedBy;\n//     }\n\n//     mapping(address => Records) allRecords;\n    \n//     Entry[] entries;\n//     function createRecord(\n//         string memory _date,\n//         string memory _hospitalName,\n//         string memory _diagnosedWith,\n//         string memory _medicationsProvided,\n//         address _diagnosedBy,\n//         address _patientAddress\n//     ) public {\n//         entries.push(\n//             Entry(\n//                 _date,\n//                 _hospitalName,\n//                 _diagnosedWith,\n//                 _medicationsProvided,\n//                 _diagnosedBy\n//             )\n//         );\n\n//         allRecords[_patientAddress] = Records(entries);\n//     }\n\n    struct PatientRecord{\n        string date;\n        string hospitalName;\n        string diagnosedWith;\n        string medicationProvided;\n        address diagnosedby;\n    }\n    \n    mapping(address => mapping(uint => PatientRecord)) patientRecords;\n    uint recordID =0;\n\n    function createRecord(\n        address _patientAddress,\n        string memory _date,\n        string memory _hospitalName,\n        string memory _dignosedWith,\n        string memory _medicationProvided,\n        address _diagnosedBy\n        ) public {\n            recordID ++;\n            patientRecords[_patientAddress][recordID] = PatientRecord(\n                _date,\n                _hospitalName,\n                _dignosedWith,\n                _medicationProvided,\n                _diagnosedBy\n                );\n    }\n\n    function removeRecord(uint id,address _patientAddress) public {\n        delete patientRecords[_patientAddress][id];\n    }\n}\n",
  "sourcePath": "D:\\OrganDonationBlockchain\\contracts\\Record.sol",
  "compiler": {
    "name": "solc",
    "version": "0.8.10+commit.fc410830.Emscripten.clang"
  },
  "schemaVersion": "3.4.4",
  "updatedAt": "2022-01-11T04:07:01.005Z",
  "devdoc": {
    "kind": "dev",
    "methods": {},
    "version": 1
  },
  "userdoc": {
    "kind": "user",
    "methods": {},
    "version": 1
  }
}